{
  "_format": "hh-sol-artifact-1",
  "contractName": "SubtitleSystem",
  "sourceName": "contracts/SubtitleSystem.sol",
  "abi": [
    {
      "inputs": [
        {
          "internalType": "address",
          "name": "owner",
          "type": "address"
        }
      ],
      "stateMutability": "nonpayable",
      "type": "constructor"
    },
    {
      "anonymous": false,
      "inputs": [
        {
          "indexed": false,
          "internalType": "uint256",
          "name": "applyId",
          "type": "uint256"
        }
      ],
      "name": "ApplicationCancel",
      "type": "event"
    },
    {
      "anonymous": false,
      "inputs": [
        {
          "indexed": false,
          "internalType": "uint256",
          "name": "applyId",
          "type": "uint256"
        },
        {
          "indexed": false,
          "internalType": "uint256",
          "name": "amount",
          "type": "uint256"
        },
        {
          "indexed": false,
          "internalType": "uint256",
          "name": "deadline",
          "type": "uint256"
        }
      ],
      "name": "ApplicationRecover",
      "type": "event"
    },
    {
      "anonymous": false,
      "inputs": [
        {
          "indexed": false,
          "internalType": "address",
          "name": "applicant",
          "type": "address"
        },
        {
          "indexed": false,
          "internalType": "address",
          "name": "platform",
          "type": "address"
        },
        {
          "indexed": false,
          "internalType": "uint256",
          "name": "videoId",
          "type": "uint256"
        },
        {
          "indexed": false,
          "internalType": "uint8",
          "name": "strategy",
          "type": "uint8"
        },
        {
          "indexed": false,
          "internalType": "uint256",
          "name": "amount",
          "type": "uint256"
        },
        {
          "indexed": false,
          "internalType": "uint16",
          "name": "language",
          "type": "uint16"
        },
        {
          "indexed": false,
          "internalType": "uint256",
          "name": "deadline",
          "type": "uint256"
        },
        {
          "indexed": false,
          "internalType": "uint256",
          "name": "applyId",
          "type": "uint256"
        },
        {
          "indexed": false,
          "internalType": "string",
          "name": "src",
          "type": "string"
        }
      ],
      "name": "ApplicationSubmit",
      "type": "event"
    },
    {
      "anonymous": false,
      "inputs": [
        {
          "indexed": true,
          "internalType": "address[]",
          "name": "opeators",
          "type": "address[]"
        },
        {
          "indexed": true,
          "internalType": "bool",
          "name": "state",
          "type": "bool"
        }
      ],
      "name": "OpeatorsStateChange",
      "type": "event"
    },
    {
      "anonymous": false,
      "inputs": [
        {
          "indexed": true,
          "internalType": "address",
          "name": "previousOwner",
          "type": "address"
        },
        {
          "indexed": true,
          "internalType": "address",
          "name": "newOwner",
          "type": "address"
        }
      ],
      "name": "OwnershipTransferred",
      "type": "event"
    },
    {
      "anonymous": false,
      "inputs": [
        {
          "indexed": false,
          "internalType": "address",
          "name": "platform",
          "type": "address"
        },
        {
          "indexed": false,
          "internalType": "uint256",
          "name": "id",
          "type": "uint256"
        },
        {
          "indexed": false,
          "internalType": "string",
          "name": "name",
          "type": "string"
        },
        {
          "indexed": false,
          "internalType": "string",
          "name": "symbol",
          "type": "string"
        },
        {
          "indexed": false,
          "internalType": "uint16",
          "name": "rate1",
          "type": "uint16"
        },
        {
          "indexed": false,
          "internalType": "uint16",
          "name": "rate2",
          "type": "uint16"
        }
      ],
      "name": "PlatformJoin",
      "type": "event"
    },
    {
      "anonymous": false,
      "inputs": [
        {
          "indexed": false,
          "internalType": "address",
          "name": "platform",
          "type": "address"
        },
        {
          "indexed": false,
          "internalType": "uint16",
          "name": "rate1",
          "type": "uint16"
        },
        {
          "indexed": false,
          "internalType": "uint16",
          "name": "rate2",
          "type": "uint16"
        }
      ],
      "name": "PlatformSetRate",
      "type": "event"
    },
    {
      "anonymous": false,
      "inputs": [
        {
          "indexed": false,
          "internalType": "string",
          "name": "language",
          "type": "string"
        },
        {
          "indexed": false,
          "internalType": "uint16",
          "name": "id",
          "type": "uint16"
        }
      ],
      "name": "RegisterLanguage",
      "type": "event"
    },
    {
      "anonymous": false,
      "inputs": [
        {
          "indexed": false,
          "internalType": "uint256",
          "name": "subtitleId",
          "type": "uint256"
        },
        {
          "indexed": false,
          "internalType": "address",
          "name": "evaluator",
          "type": "address"
        },
        {
          "indexed": false,
          "internalType": "uint8",
          "name": "attitude",
          "type": "uint8"
        }
      ],
      "name": "SubitlteGetEvaluation",
      "type": "event"
    },
    {
      "anonymous": false,
      "inputs": [
        {
          "indexed": false,
          "internalType": "uint256",
          "name": "subtitleId",
          "type": "uint256"
        },
        {
          "indexed": false,
          "internalType": "uint8",
          "name": "state",
          "type": "uint8"
        },
        {
          "indexed": false,
          "internalType": "uint256",
          "name": "applyId",
          "type": "uint256"
        }
      ],
      "name": "SubtilteStateChange",
      "type": "event"
    },
    {
      "anonymous": false,
      "inputs": [
        {
          "indexed": false,
          "internalType": "address",
          "name": "platform",
          "type": "address"
        },
        {
          "indexed": false,
          "internalType": "uint256[]",
          "name": "subtitleId",
          "type": "uint256[]"
        },
        {
          "indexed": false,
          "internalType": "uint256[]",
          "name": "counts",
          "type": "uint256[]"
        }
      ],
      "name": "SubtitleCountsUpdate",
      "type": "event"
    },
    {
      "anonymous": false,
      "inputs": [
        {
          "indexed": false,
          "internalType": "address",
          "name": "newAccess",
          "type": "address"
        }
      ],
      "name": "SystemSetAccess",
      "type": "event"
    },
    {
      "anonymous": false,
      "inputs": [
        {
          "indexed": false,
          "internalType": "address",
          "name": "newAudit",
          "type": "address"
        }
      ],
      "name": "SystemSetAudit",
      "type": "event"
    },
    {
      "anonymous": false,
      "inputs": [
        {
          "indexed": false,
          "internalType": "address",
          "name": "newDetection",
          "type": "address"
        }
      ],
      "name": "SystemSetDetection",
      "type": "event"
    },
    {
      "anonymous": false,
      "inputs": [
        {
          "indexed": false,
          "internalType": "uint256",
          "name": "time",
          "type": "uint256"
        }
      ],
      "name": "SystemSetLockUpTime",
      "type": "event"
    },
    {
      "anonymous": false,
      "inputs": [
        {
          "indexed": false,
          "internalType": "uint8",
          "name": "strategyId",
          "type": "uint8"
        },
        {
          "indexed": false,
          "internalType": "address",
          "name": "strategy",
          "type": "address"
        },
        {
          "indexed": false,
          "internalType": "string",
          "name": "notes",
          "type": "string"
        }
      ],
      "name": "SystemSetSettlement",
      "type": "event"
    },
    {
      "anonymous": false,
      "inputs": [
        {
          "indexed": false,
          "internalType": "address",
          "name": "token",
          "type": "address"
        }
      ],
      "name": "SystemSetSubtitleToken",
      "type": "event"
    },
    {
      "anonymous": false,
      "inputs": [
        {
          "indexed": false,
          "internalType": "address",
          "name": "token",
          "type": "address"
        }
      ],
      "name": "SystemSetVideoToken",
      "type": "event"
    },
    {
      "anonymous": false,
      "inputs": [
        {
          "indexed": false,
          "internalType": "address",
          "name": "token",
          "type": "address"
        }
      ],
      "name": "SystemSetZimuToken",
      "type": "event"
    },
    {
      "anonymous": false,
      "inputs": [
        {
          "indexed": false,
          "internalType": "address",
          "name": "usr",
          "type": "address"
        },
        {
          "indexed": false,
          "internalType": "int256",
          "name": "reputationSpread",
          "type": "int256"
        },
        {
          "indexed": false,
          "internalType": "int256",
          "name": "tokenSpread",
          "type": "int256"
        }
      ],
      "name": "UserInfoUpdate",
      "type": "event"
    },
    {
      "anonymous": false,
      "inputs": [
        {
          "indexed": false,
          "internalType": "address",
          "name": "user",
          "type": "address"
        },
        {
          "indexed": false,
          "internalType": "uint256",
          "name": "reputation",
          "type": "uint256"
        },
        {
          "indexed": false,
          "internalType": "int256",
          "name": "deposit",
          "type": "int256"
        }
      ],
      "name": "UserJoin",
      "type": "event"
    },
    {
      "anonymous": false,
      "inputs": [
        {
          "indexed": false,
          "internalType": "address",
          "name": "user",
          "type": "address"
        },
        {
          "indexed": false,
          "internalType": "address",
          "name": "platform",
          "type": "address"
        },
        {
          "indexed": false,
          "internalType": "uint256",
          "name": "day",
          "type": "uint256"
        },
        {
          "indexed": false,
          "internalType": "int256",
          "name": "reward",
          "type": "int256"
        }
      ],
      "name": "UserLockRewardUpdate",
      "type": "event"
    },
    {
      "anonymous": false,
      "inputs": [
        {
          "indexed": false,
          "internalType": "address",
          "name": "user",
          "type": "address"
        },
        {
          "indexed": false,
          "internalType": "address",
          "name": "platform",
          "type": "address"
        },
        {
          "indexed": false,
          "internalType": "uint256[]",
          "name": "day",
          "type": "uint256[]"
        },
        {
          "indexed": false,
          "internalType": "uint256",
          "name": "all",
          "type": "uint256"
        }
      ],
      "name": "UserWithdraw",
      "type": "event"
    },
    {
      "anonymous": false,
      "inputs": [
        {
          "indexed": false,
          "internalType": "address",
          "name": "platform",
          "type": "address"
        },
        {
          "indexed": false,
          "internalType": "uint256[]",
          "name": "id",
          "type": "uint256[]"
        },
        {
          "indexed": false,
          "internalType": "uint256[]",
          "name": "counts",
          "type": "uint256[]"
        }
      ],
      "name": "VideoCountsUpdate",
      "type": "event"
    },
    {
      "anonymous": false,
      "inputs": [
        {
          "indexed": false,
          "internalType": "address",
          "name": "platform",
          "type": "address"
        },
        {
          "indexed": false,
          "internalType": "uint256",
          "name": "realId",
          "type": "uint256"
        },
        {
          "indexed": false,
          "internalType": "uint256",
          "name": "id",
          "type": "uint256"
        },
        {
          "indexed": false,
          "internalType": "string",
          "name": "symbol",
          "type": "string"
        },
        {
          "indexed": false,
          "internalType": "address",
          "name": "creator",
          "type": "address"
        }
      ],
      "name": "VideoCreate",
      "type": "event"
    },
    {
      "anonymous": false,
      "inputs": [
        {
          "indexed": false,
          "internalType": "uint256",
          "name": "videoId",
          "type": "uint256"
        },
        {
          "indexed": false,
          "internalType": "uint256",
          "name": "unsettled",
          "type": "uint256"
        },
        {
          "indexed": false,
          "internalType": "uint256",
          "name": "surplus",
          "type": "uint256"
        }
      ],
      "name": "VideoPreExtract",
      "type": "event"
    },
    {
      "inputs": [],
      "name": "Despoit",
      "outputs": [
        {
          "internalType": "uint256",
          "name": "",
          "type": "uint256"
        }
      ],
      "stateMutability": "view",
      "type": "function"
    },
    {
      "inputs": [],
      "name": "accessStrategy",
      "outputs": [
        {
          "internalType": "contract IAccessStrategy",
          "name": "",
          "type": "address"
        }
      ],
      "stateMutability": "view",
      "type": "function"
    },
    {
      "inputs": [],
      "name": "auditStrategy",
      "outputs": [
        {
          "internalType": "contract IAuditStrategy",
          "name": "",
          "type": "address"
        }
      ],
      "stateMutability": "view",
      "type": "function"
    },
    {
      "inputs": [
        {
          "internalType": "uint256",
          "name": "applyId",
          "type": "uint256"
        }
      ],
      "name": "cancel",
      "outputs": [],
      "stateMutability": "nonpayable",
      "type": "function"
    },
    {
      "inputs": [
        {
          "internalType": "uint256",
          "name": "id",
          "type": "uint256"
        },
        {
          "internalType": "string",
          "name": "symbol",
          "type": "string"
        },
        {
          "internalType": "address",
          "name": "creator",
          "type": "address"
        }
      ],
      "name": "createVideo",
      "outputs": [
        {
          "internalType": "uint256",
          "name": "",
          "type": "uint256"
        }
      ],
      "stateMutability": "nonpayable",
      "type": "function"
    },
    {
      "inputs": [],
      "name": "detectionStrategy",
      "outputs": [
        {
          "internalType": "contract IDetectionStrategy",
          "name": "",
          "type": "address"
        }
      ],
      "stateMutability": "view",
      "type": "function"
    },
    {
      "inputs": [
        {
          "internalType": "uint256",
          "name": "subtitleId",
          "type": "uint256"
        },
        {
          "internalType": "uint8",
          "name": "attitude",
          "type": "uint8"
        }
      ],
      "name": "evaluateSubtitle",
      "outputs": [],
      "stateMutability": "nonpayable",
      "type": "function"
    },
    {
      "inputs": [
        {
          "internalType": "uint16",
          "name": "languageId",
          "type": "uint16"
        }
      ],
      "name": "getLanguageType",
      "outputs": [
        {
          "internalType": "string",
          "name": "",
          "type": "string"
        }
      ],
      "stateMutability": "view",
      "type": "function"
    },
    {
      "inputs": [
        {
          "internalType": "uint256",
          "name": "subtitleId",
          "type": "uint256"
        }
      ],
      "name": "getSubtitleAuditInfo",
      "outputs": [
        {
          "internalType": "uint256",
          "name": "",
          "type": "uint256"
        },
        {
          "internalType": "uint256",
          "name": "",
          "type": "uint256"
        },
        {
          "internalType": "uint256",
          "name": "",
          "type": "uint256"
        },
        {
          "internalType": "uint256",
          "name": "",
          "type": "uint256"
        },
        {
          "internalType": "uint256",
          "name": "",
          "type": "uint256"
        }
      ],
      "stateMutability": "view",
      "type": "function"
    },
    {
      "inputs": [
        {
          "internalType": "address",
          "name": "usr",
          "type": "address"
        }
      ],
      "name": "getUserBaseInfo",
      "outputs": [
        {
          "internalType": "uint256",
          "name": "",
          "type": "uint256"
        },
        {
          "internalType": "int256",
          "name": "",
          "type": "int256"
        }
      ],
      "stateMutability": "view",
      "type": "function"
    },
    {
      "inputs": [
        {
          "internalType": "address",
          "name": "usr",
          "type": "address"
        },
        {
          "internalType": "address",
          "name": "platform",
          "type": "address"
        },
        {
          "internalType": "uint256",
          "name": "day",
          "type": "uint256"
        }
      ],
      "name": "getUserLockReward",
      "outputs": [
        {
          "internalType": "uint256",
          "name": "",
          "type": "uint256"
        }
      ],
      "stateMutability": "view",
      "type": "function"
    },
    {
      "inputs": [
        {
          "internalType": "string",
          "name": "",
          "type": "string"
        }
      ],
      "name": "languages",
      "outputs": [
        {
          "internalType": "uint16",
          "name": "",
          "type": "uint16"
        }
      ],
      "stateMutability": "view",
      "type": "function"
    },
    {
      "inputs": [],
      "name": "lockUpTime",
      "outputs": [
        {
          "internalType": "uint256",
          "name": "",
          "type": "uint256"
        }
      ],
      "stateMutability": "view",
      "type": "function"
    },
    {
      "inputs": [],
      "name": "owner",
      "outputs": [
        {
          "internalType": "address",
          "name": "",
          "type": "address"
        }
      ],
      "stateMutability": "view",
      "type": "function"
    },
    {
      "inputs": [],
      "name": "penalty",
      "outputs": [
        {
          "internalType": "uint256",
          "name": "",
          "type": "uint256"
        }
      ],
      "stateMutability": "view",
      "type": "function"
    },
    {
      "inputs": [
        {
          "internalType": "uint16",
          "name": "rate1",
          "type": "uint16"
        },
        {
          "internalType": "uint16",
          "name": "rate2",
          "type": "uint16"
        }
      ],
      "name": "platformRate",
      "outputs": [
        {
          "internalType": "uint16",
          "name": "",
          "type": "uint16"
        },
        {
          "internalType": "uint16",
          "name": "",
          "type": "uint16"
        }
      ],
      "stateMutability": "nonpayable",
      "type": "function"
    },
    {
      "inputs": [
        {
          "internalType": "address",
          "name": "",
          "type": "address"
        }
      ],
      "name": "platforms",
      "outputs": [
        {
          "internalType": "string",
          "name": "name",
          "type": "string"
        },
        {
          "internalType": "string",
          "name": "symbol",
          "type": "string"
        },
        {
          "internalType": "uint256",
          "name": "platformId",
          "type": "uint256"
        },
        {
          "internalType": "uint16",
          "name": "rateCountsToProfit",
          "type": "uint16"
        },
        {
          "internalType": "uint16",
          "name": "rateAuditorDivide",
          "type": "uint16"
        }
      ],
      "stateMutability": "view",
      "type": "function"
    },
    {
      "inputs": [
        {
          "internalType": "address",
          "name": "platfrom",
          "type": "address"
        },
        {
          "internalType": "string",
          "name": "name",
          "type": "string"
        },
        {
          "internalType": "string",
          "name": "symbol",
          "type": "string"
        },
        {
          "internalType": "uint16",
          "name": "rate1",
          "type": "uint16"
        },
        {
          "internalType": "uint16",
          "name": "rate2",
          "type": "uint16"
        }
      ],
      "name": "platfromJoin",
      "outputs": [
        {
          "internalType": "uint256",
          "name": "",
          "type": "uint256"
        }
      ],
      "stateMutability": "nonpayable",
      "type": "function"
    },
    {
      "inputs": [
        {
          "internalType": "address",
          "name": "platform",
          "type": "address"
        },
        {
          "internalType": "address",
          "name": "to",
          "type": "address"
        },
        {
          "internalType": "uint256",
          "name": "amount",
          "type": "uint256"
        }
      ],
      "name": "preDivide",
      "outputs": [],
      "stateMutability": "nonpayable",
      "type": "function"
    },
    {
      "inputs": [
        {
          "internalType": "address",
          "name": "platform",
          "type": "address"
        },
        {
          "internalType": "address[]",
          "name": "to",
          "type": "address[]"
        },
        {
          "internalType": "uint256",
          "name": "amount",
          "type": "uint256"
        }
      ],
      "name": "preDivideBatch",
      "outputs": [],
      "stateMutability": "nonpayable",
      "type": "function"
    },
    {
      "inputs": [
        {
          "internalType": "uint256",
          "name": "applyId",
          "type": "uint256"
        }
      ],
      "name": "preExtract0",
      "outputs": [],
      "stateMutability": "nonpayable",
      "type": "function"
    },
    {
      "inputs": [
        {
          "internalType": "uint256",
          "name": "videoId",
          "type": "uint256"
        }
      ],
      "name": "preExtractOther",
      "outputs": [
        {
          "internalType": "uint256",
          "name": "",
          "type": "uint256"
        }
      ],
      "stateMutability": "nonpayable",
      "type": "function"
    },
    {
      "inputs": [
        {
          "internalType": "uint256",
          "name": "applyId",
          "type": "uint256"
        },
        {
          "internalType": "uint256",
          "name": "amount",
          "type": "uint256"
        },
        {
          "internalType": "uint256",
          "name": "deadline",
          "type": "uint256"
        }
      ],
      "name": "recover",
      "outputs": [],
      "stateMutability": "nonpayable",
      "type": "function"
    },
    {
      "inputs": [
        {
          "internalType": "string[]",
          "name": "language",
          "type": "string[]"
        }
      ],
      "name": "registerLanguage",
      "outputs": [
        {
          "internalType": "uint16",
          "name": "",
          "type": "uint16"
        }
      ],
      "stateMutability": "nonpayable",
      "type": "function"
    },
    {
      "inputs": [
        {
          "internalType": "contract IAccessStrategy",
          "name": "newAccess",
          "type": "address"
        }
      ],
      "name": "setAccessStrategy",
      "outputs": [],
      "stateMutability": "nonpayable",
      "type": "function"
    },
    {
      "inputs": [
        {
          "internalType": "contract IAuditStrategy",
          "name": "newAudit",
          "type": "address"
        }
      ],
      "name": "setAuditStrategy",
      "outputs": [],
      "stateMutability": "nonpayable",
      "type": "function"
    },
    {
      "inputs": [
        {
          "internalType": "contract IDetectionStrategy",
          "name": "newDetection",
          "type": "address"
        }
      ],
      "name": "setDetectionStrategy",
      "outputs": [],
      "stateMutability": "nonpayable",
      "type": "function"
    },
    {
      "inputs": [
        {
          "internalType": "uint256",
          "name": "time",
          "type": "uint256"
        }
      ],
      "name": "setLockUpTime",
      "outputs": [],
      "stateMutability": "nonpayable",
      "type": "function"
    },
    {
      "inputs": [
        {
          "internalType": "address[]",
          "name": "operators",
          "type": "address[]"
        },
        {
          "internalType": "bool",
          "name": "state",
          "type": "bool"
        }
      ],
      "name": "setOperators",
      "outputs": [],
      "stateMutability": "nonpayable",
      "type": "function"
    },
    {
      "inputs": [
        {
          "internalType": "uint8",
          "name": "strategyId",
          "type": "uint8"
        },
        {
          "internalType": "address",
          "name": "strategy",
          "type": "address"
        },
        {
          "internalType": "string",
          "name": "notes",
          "type": "string"
        }
      ],
      "name": "setSettlementStrategy",
      "outputs": [],
      "stateMutability": "nonpayable",
      "type": "function"
    },
    {
      "inputs": [
        {
          "internalType": "address",
          "name": "token",
          "type": "address"
        }
      ],
      "name": "setSubtitleToken",
      "outputs": [],
      "stateMutability": "nonpayable",
      "type": "function"
    },
    {
      "inputs": [
        {
          "internalType": "address",
          "name": "token",
          "type": "address"
        }
      ],
      "name": "setVideoToken",
      "outputs": [],
      "stateMutability": "nonpayable",
      "type": "function"
    },
    {
      "inputs": [
        {
          "internalType": "address",
          "name": "token",
          "type": "address"
        }
      ],
      "name": "setZimuToken",
      "outputs": [],
      "stateMutability": "nonpayable",
      "type": "function"
    },
    {
      "inputs": [
        {
          "internalType": "uint8",
          "name": "",
          "type": "uint8"
        }
      ],
      "name": "settlementStrategy",
      "outputs": [
        {
          "internalType": "address",
          "name": "strategy",
          "type": "address"
        },
        {
          "internalType": "string",
          "name": "notes",
          "type": "string"
        }
      ],
      "stateMutability": "view",
      "type": "function"
    },
    {
      "inputs": [
        {
          "internalType": "address",
          "name": "platform",
          "type": "address"
        },
        {
          "internalType": "uint256",
          "name": "videoId",
          "type": "uint256"
        },
        {
          "internalType": "uint8",
          "name": "strategy",
          "type": "uint8"
        },
        {
          "internalType": "uint256",
          "name": "amount",
          "type": "uint256"
        },
        {
          "internalType": "uint16",
          "name": "language",
          "type": "uint16"
        },
        {
          "internalType": "uint256",
          "name": "deadline",
          "type": "uint256"
        },
        {
          "internalType": "string",
          "name": "src",
          "type": "string"
        }
      ],
      "name": "submitApplication",
      "outputs": [
        {
          "internalType": "uint256",
          "name": "",
          "type": "uint256"
        }
      ],
      "stateMutability": "nonpayable",
      "type": "function"
    },
    {
      "inputs": [
        {
          "internalType": "uint256",
          "name": "",
          "type": "uint256"
        }
      ],
      "name": "subtitleNFT",
      "outputs": [
        {
          "internalType": "uint256",
          "name": "applyId",
          "type": "uint256"
        },
        {
          "internalType": "uint8",
          "name": "state",
          "type": "uint8"
        },
        {
          "internalType": "uint256",
          "name": "stateChangeTime",
          "type": "uint256"
        }
      ],
      "stateMutability": "view",
      "type": "function"
    },
    {
      "inputs": [],
      "name": "subtitleToken",
      "outputs": [
        {
          "internalType": "address",
          "name": "",
          "type": "address"
        }
      ],
      "stateMutability": "view",
      "type": "function"
    },
    {
      "inputs": [],
      "name": "totalApplyNumber",
      "outputs": [
        {
          "internalType": "uint256",
          "name": "",
          "type": "uint256"
        }
      ],
      "stateMutability": "view",
      "type": "function"
    },
    {
      "inputs": [
        {
          "internalType": "uint256",
          "name": "",
          "type": "uint256"
        }
      ],
      "name": "totalApplys",
      "outputs": [
        {
          "internalType": "address",
          "name": "applicant",
          "type": "address"
        },
        {
          "internalType": "uint256",
          "name": "videoId",
          "type": "uint256"
        },
        {
          "internalType": "string",
          "name": "source",
          "type": "string"
        },
        {
          "internalType": "uint8",
          "name": "strategy",
          "type": "uint8"
        },
        {
          "internalType": "uint256",
          "name": "amount",
          "type": "uint256"
        },
        {
          "internalType": "uint16",
          "name": "language",
          "type": "uint16"
        },
        {
          "internalType": "uint256",
          "name": "adopted",
          "type": "uint256"
        },
        {
          "internalType": "uint256",
          "name": "deadline",
          "type": "uint256"
        }
      ],
      "stateMutability": "view",
      "type": "function"
    },
    {
      "inputs": [],
      "name": "totalPlatforms",
      "outputs": [
        {
          "internalType": "uint256",
          "name": "",
          "type": "uint256"
        }
      ],
      "stateMutability": "view",
      "type": "function"
    },
    {
      "inputs": [],
      "name": "totalVideoNumber",
      "outputs": [
        {
          "internalType": "uint256",
          "name": "",
          "type": "uint256"
        }
      ],
      "stateMutability": "view",
      "type": "function"
    },
    {
      "inputs": [
        {
          "internalType": "address",
          "name": "newOwner",
          "type": "address"
        }
      ],
      "name": "transferOwnership",
      "outputs": [],
      "stateMutability": "nonpayable",
      "type": "function"
    },
    {
      "inputs": [
        {
          "internalType": "uint256[]",
          "name": "id",
          "type": "uint256[]"
        },
        {
          "internalType": "uint256[]",
          "name": "ss",
          "type": "uint256[]"
        }
      ],
      "name": "updateUsageCounts",
      "outputs": [],
      "stateMutability": "nonpayable",
      "type": "function"
    },
    {
      "inputs": [
        {
          "internalType": "uint256[]",
          "name": "id",
          "type": "uint256[]"
        },
        {
          "internalType": "uint256[]",
          "name": "vs",
          "type": "uint256[]"
        }
      ],
      "name": "updateViewCounts",
      "outputs": [],
      "stateMutability": "nonpayable",
      "type": "function"
    },
    {
      "inputs": [
        {
          "internalType": "uint256",
          "name": "applyId",
          "type": "uint256"
        },
        {
          "internalType": "string",
          "name": "cid",
          "type": "string"
        },
        {
          "internalType": "uint16",
          "name": "languageId",
          "type": "uint16"
        },
        {
          "internalType": "uint256",
          "name": "fingerprint",
          "type": "uint256"
        }
      ],
      "name": "uploadSubtitle",
      "outputs": [
        {
          "internalType": "uint256",
          "name": "",
          "type": "uint256"
        }
      ],
      "stateMutability": "nonpayable",
      "type": "function"
    },
    {
      "inputs": [
        {
          "internalType": "address",
          "name": "usr",
          "type": "address"
        },
        {
          "internalType": "uint256",
          "name": "despoit",
          "type": "uint256"
        }
      ],
      "name": "userJoin",
      "outputs": [],
      "stateMutability": "nonpayable",
      "type": "function"
    },
    {
      "inputs": [],
      "name": "videoToken",
      "outputs": [
        {
          "internalType": "address",
          "name": "",
          "type": "address"
        }
      ],
      "stateMutability": "view",
      "type": "function"
    },
    {
      "inputs": [
        {
          "internalType": "uint256",
          "name": "",
          "type": "uint256"
        }
      ],
      "name": "videos",
      "outputs": [
        {
          "internalType": "address",
          "name": "platform",
          "type": "address"
        },
        {
          "internalType": "uint256",
          "name": "id",
          "type": "uint256"
        },
        {
          "internalType": "string",
          "name": "symbol",
          "type": "string"
        },
        {
          "internalType": "address",
          "name": "creator",
          "type": "address"
        },
        {
          "internalType": "uint256",
          "name": "totalViewCouts",
          "type": "uint256"
        },
        {
          "internalType": "uint256",
          "name": "unsettled",
          "type": "uint256"
        }
      ],
      "stateMutability": "view",
      "type": "function"
    },
    {
      "inputs": [
        {
          "internalType": "address",
          "name": "platform",
          "type": "address"
        },
        {
          "internalType": "uint256[]",
          "name": "day",
          "type": "uint256[]"
        }
      ],
      "name": "withdraw",
      "outputs": [
        {
          "internalType": "uint256",
          "name": "",
          "type": "uint256"
        }
      ],
      "stateMutability": "nonpayable",
      "type": "function"
    },
    {
      "inputs": [
        {
          "internalType": "uint256",
          "name": "amount",
          "type": "uint256"
        }
      ],
      "name": "withdrawDeposit",
      "outputs": [
        {
          "internalType": "uint256",
          "name": "",
          "type": "uint256"
        }
      ],
      "stateMutability": "nonpayable",
      "type": "function"
    },
    {
      "inputs": [],
      "name": "zimuToken",
      "outputs": [
        {
          "internalType": "address",
          "name": "",
          "type": "address"
        }
      ],
      "stateMutability": "view",
      "type": "function"
    }
  ],
  "bytecode": "0x60806040523480156200001157600080fd5b5060405162005cc538038062005cc58339810160408190526200003491620001d7565b6200003f81620000e1565b600c60209081527f13649b2456f1b42fef0f0040b3aaeabcd21a76a0f3f5defd4f583839455116eb805463ffff0000191663028f00001790556009805460018101825560009190915260408051808201909152600780825266111959985d5b1d60ca1b91909301908152620000d9927f6e1540171b6c0c960b71a7020d9f60077f6af931a8bbf590da0223dacf75c7af9092019162000131565b505062000246565b600080546001600160a01b038381166001600160a01b0319831681178455604051919092169283917f8be0079c531659141344cd1fd0a4f28419497f9722a3daafe3b4186f6b6457e09190a35050565b8280546200013f9062000209565b90600052602060002090601f016020900481019282620001635760008555620001ae565b82601f106200017e57805160ff1916838001178555620001ae565b82800160010185558215620001ae579182015b82811115620001ae57825182559160200191906001019062000191565b50620001bc929150620001c0565b5090565b5b80821115620001bc5760008155600101620001c1565b600060208284031215620001ea57600080fd5b81516001600160a01b03811681146200020257600080fd5b9392505050565b600181811c908216806200021e57607f821691505b602082108114156200024057634e487b7160e01b600052602260045260246000fd5b50919050565b615a6f80620002566000396000f3fe608060405234801561001057600080fd5b50600436106102615760003560e01c80638b2280061161014d5780638b228006146105045780638da5cb5b146105335780638de728c31461054457806394fec79f14610557578063a2b8a3d914610560578063a3111bdb14610581578063a5c25ad114610594578063a93e5cef146105b4578063b8fcef8b146105c7578063b953324a146105d0578063bedb0419146105f7578063c0cdec8e14610600578063c354900a14610609578063d13133841461061c578063d680364714610640578063e4e505ee14610686578063e6821bf514610699578063e759dcd0146106be578063e8fb5d22146106d1578063e94a61ae146106e4578063ea05657c146106f7578063ea80eae41461070a578063f2fde38b1461071d578063f579622b14610730578063fa3f856714610743578063fb74121a1461075657600080fd5b80630275dc5d14610266578063030df1d71461027b57806308b79e141461028e5780630edd2ffc146102b9578063167624ec146102d05780631cd0af28146102e35780631f53ea4b14610303578063264859cb1461031657806329d2f450146103295780632a3ce1a41461033c5780632df685931461036a5780632fdd215e1461037d57806333289a46146103905780633f2cfd32146103a357806340e58ee5146103ac57806358bc16ee146103bf5780635aaf6287146104005780635deea7461461044457806360a5095314610457578063621208d91461046a57806373bb6ac01461047d57806373e01efb1461049057806376d1fd49146104cb5780638293744b146104de57806386497b7e146104f1575b600080fd5b6102796102743660046148e0565b610769565b005b61027961028936600461490e565b610948565b6102a161029c366004614a03565b6109ee565b60405161ffff90911681526020015b60405180910390f35b6102c260035481565b6040519081526020016102b0565b6102c26102de366004614ab8565b610b87565b6013546102f6906001600160a01b031681565b6040516102b09190614b12565b610279610311366004614b35565b610bd3565b61027961032436600461490e565b610d1e565b600d546102f6906001600160a01b031681565b61034f61034a366004614bad565b610db9565b6040805161ffff9384168152929091166020830152016102b0565b6102c2610378366004614be0565b610f03565b6102c261038b3660046148e0565b61111c565b6102c261039e3660046148e0565b6112c1565b6102c260195481565b6102796103ba3660046148e0565b6113d6565b6103f16103cd3660046148e0565b600e60205260009081526040902080546001820154600290920154909160ff169083565b6040516102b093929190614c77565b6102c261040e366004614c90565b6001600160a01b039283166000908152600a60209081526040808320949095168252600290930183528381209181529152205490565b6006546102f6906001600160a01b031681565b61027961046536600461490e565b611583565b610279610478366004614c90565b61161e565b61027961048b366004614cd1565b61164b565b6104a361049e3660046148e0565b611895565b604080519586526020860194909452928401919091526060830152608082015260a0016102b0565b6012546102f6906001600160a01b031681565b6102c26104ec366004614d67565b611960565b6011546102f6906001600160a01b031681565b6102a1610512366004614db6565b805160208183018101805160088252928201919093012091525461ffff1681565b6000546001600160a01b03166102f6565b610279610552366004614e56565b611d0f565b6102c260145481565b61057361056e366004614eae565b611d3c565b6040516102b0929190614f23565b61027961058f366004614f55565b611deb565b6105a76105a2366004614f9b565b611ec2565b6040516102b09190614fb6565b6102c26105c2366004614fc9565b611f75565b6102c2600b5481565b6105e36105de3660046148e0565b612520565b6040516102b0989796959493929190615058565b6102c260165481565b6102c260025481565b61027961061736600461490e565b6125fc565b61062f61062a36600461490e565b612697565b6040516102b09594939291906150b7565b61067161064e36600461490e565b6001600160a01b03166000908152600a6020526040902080546001909101549091565b604080519283526020830191909152016102b0565b61027961069436600461490e565b6127de565b6106ac6106a73660046148e0565b612879565b6040516102b0969594939291906150ff565b6102796106cc366004615144565b61294c565b6102796106df366004615170565b612a93565b6007546102f6906001600160a01b031681565b61027961070536600461519c565b612bbc565b61027961071836600461490e565b612edd565b61027961072b36600461490e565b612f78565b61027961073e3660046148e0565b613013565b61027961075136600461519c565b613092565b6102c26107643660046151f5565b613245565b6000818152601a602052604090206003015460ff16156107a45760405162461bcd60e51b815260040161079b90615253565b60405180910390fd5b6000818152601a602081815260408084206001810154855260178352818520547fa31547ce6245cdb9ecea19cf8c7eb9f5974025bb4075011409251ae855b30aed54600d5496889052949093526007015490516331a9108f60e11b81526001600160a01b039283169493831693631899ca5f93879387939290911691636352211e916108369160040190815260200190565b60206040518083038186803b15801561084e57600080fd5b505afa158015610862573d6000803e3d6000fd5b505050506040513d601f19601f820116820180604052508101906108869190615270565b6001600160a01b0386166000908152600c602090815260408083206003908101548b8552601a8452828520600701548552600e909352818420915160e089901b6001600160e01b03191681526108f1979695949362010000900461ffff1692909101906004016152d6565b602060405180830381600087803b15801561090b57600080fd5b505af115801561091f573d6000803e3d6000fd5b505050506040513d601f19601f820116820180604052508101906109439190615325565b505050565b6000546001600160a01b031633146109725760405162461bcd60e51b815260040161079b9061533e565b6001600160a01b0381166109985760405162461bcd60e51b815260040161079b90615373565b600680546001600160a01b0319166001600160a01b0383161790556040517f08c317d71a27e3dfca204d6ca65032977890b64d0bb25a1f9dfbec5b031013c8906109e3908390614b12565b60405180910390a150565b6000805b8251811015610b71576009838281518110610a0f57610a0f615390565b60209081029190910181015182546001810184556000938452928290208151610a41949190910192919091019061480d565b506008838281518110610a5657610a56615390565b6020026020010151604051610a6b91906153a6565b9081526040519081900360200190205461ffff1615610a9c5760405162461bcd60e51b815260040161079b906153c2565b600954610aab906001906153f5565b6008848381518110610abf57610abf615390565b6020026020010151604051610ad491906153a6565b908152602001604051809103902060006101000a81548161ffff021916908361ffff1602179055507f90de228dee0605259423a988ce153c9485cc6325b472e0d4900cc77e43229462838281518110610b2f57610b2f615390565b60200260200101516001600980549050610b4991906153f5565b604051610b5792919061540c565b60405180910390a180610b6981615432565b9150506109f2565b50600954610b81906001906153f5565b92915050565b336000908152600c602052604081206003015461ffff16610bba5760405162461bcd60e51b815260040161079b90615373565b6000610bc8338686866134e5565b9150505b9392505050565b6000546001600160a01b03163314610bfd5760405162461bcd60e51b815260040161079b9061533e565b6001600160a01b038216610c235760405162461bcd60e51b815260040161079b90615373565b60ff8316600090815260156020908152604090912080546001600160a01b0319166001600160a01b0385161781558251610c659260019092019184019061480d565b5060ff83166000908152601560205260409020546001600160a01b031615610cb85760ff83166000908152601560209081526040808320546001600160a01b0316835260019091529020805460ff191690555b6001600160a01b038216600090815260016020819052604091829020805460ff19169091179055517ffe7a72823ef2858b4f44a3a728a93b18a9a2bd480962708b9568ac4a5653b8ee90610d119085908590859061544d565b60405180910390a1505050565b6000546001600160a01b03163314610d485760405162461bcd60e51b815260040161079b9061533e565b6001600160a01b038116610d6e5760405162461bcd60e51b815260040161079b90615373565b601280546001600160a01b0319166001600160a01b0383161790556040517f141131bc079b7ca93af08d8d002e7b5c05980b35119d25bcfbf50a474d8e4f7f906109e3908390614b12565b60008061ffff8416151580610dd1575061ffff831615155b610ded5760405162461bcd60e51b815260040161079b90615373565b336000908152600c602052604090206003015461ffff16610e365760405162461bcd60e51b815260206004820152600360248201526222a91960e91b604482015260640161079b565b61ffff841615610e6257336000908152600c60205260409020600301805461ffff191661ffff86161790555b61ffff831615610e9557336000908152600c60205260409020600301805463ffff000019166201000061ffff8616021790555b6040805133815261ffff868116602083015285168183015290517f7d07d6e6f7e20d3e822b52403568ff69d07e849c5fb471a7f31801d722b5ade79181900360600190a15050336000908152600c602052604090206003015461ffff80821691620100009004169250929050565b600080546001600160a01b03163314610f2e5760405162461bcd60e51b815260040161079b9061533e565b6001600160a01b0386166000908152600c602052604090206003015461ffff1615610f6b5760405162461bcd60e51b815260040161079b906153c2565b60008361ffff16118015610f83575060008261ffff16115b610f9f5760405162461bcd60e51b815260040161079b90615373565b600b8054906000610faf83615432565b90915550506040805160a0810182528681526020808201879052600b548284015261ffff8087166060840152851660808301526001600160a01b0389166000908152600c825292909220815180519293919261100e928492019061480d565b506020828101518051611027926001850192019061480d565b50604082810151600283015560608301516003909201805460809094015161ffff908116620100000263ffffffff19909516931692909217929092179055600754600b54915163169a7b1960e11b81526001600160a01b0390911691632d34f6329161109a9188918b9190600401615483565b600060405180830381600087803b1580156110b457600080fd5b505af11580156110c8573d6000803e3d6000fd5b505050507ff7ab3642f3af1eb7a3d99172b39d3b81500f0d2e8ca42817bf14e6f588c3a5dd86600b5487878787604051611107969594939291906154b1565b60405180910390a150600b5495945050505050565b6000818152601760205260408120600501546111635760405162461bcd60e51b815260040161079b906020808252600490820152634552313160e01b604082015260600190565b6000828152601760209081526040808320600581015490546001600160a01b03168452600c90925282206003015461ffff916111a091831661550c565b6111ad90620f424061550c565b6111b7919061552b565b905060006111c5848361362c565b9050801561126457600754600085815260176020818152604080842080546001600160a01b039081168652600c845282862060020154958b9052939092526003909101549051630107289f60e41b81529382169363107289f0936112319390921690869060040161554d565b600060405180830381600087803b15801561124b57600080fd5b505af115801561125f573d6000803e3d6000fd5b505050505b60008481526017602090815260408083206005019290925581518681529081018490529081018290527f97a628715758aec012fad464591d7f79e0aa8c976b33fd58fd8f4c2dd1c585039060600160405180910390a15092915050565b336000908152600a602052604081206001015481126112f25760405162461bcd60e51b815260040161079b90615373565b336000908152600a602052604090206001015482111561132257336000908152600a602052604090206001015491505b336000908152600a60205260408120600101805484929061134490849061556c565b90915550506006546040516323b872dd60e01b81526001600160a01b03909116906323b872dd9061137d903090339087906004016155ab565b602060405180830381600087803b15801561139757600080fd5b505af11580156113ab573d6000803e3d6000fd5b505050506040513d601f19601f820116820180604052508101906113cf91906155cf565b5090919050565b6000818152601a60205260409020546001600160a01b0316331461140c5760405162461bcd60e51b815260040161079b906155ec565b6000818152601a602052604090206007015415801561143a57506000818152601a6020526040902060060154155b801561145757506000818152601a60205260409020600801544210155b6114735760405162461bcd60e51b815260040161079b90615609565b6000818152601a602052604090206003015460ff16156114a55760405162461bcd60e51b815260040161079b90615253565b6000818152601a602081815260408084206001810154855260178352818520546001600160a01b039081168652600c84528286206002015460075496889052949093526004908101549151630107289f60e41b815293949092169263107289f09261151492869233920161554d565b600060405180830381600087803b15801561152e57600080fd5b505af1158015611542573d6000803e3d6000fd5b505050507fd30d71c48064110dd4ba58760f48b5cbcc60e64452b205ecdd43572bca55cc318260405161157791815260200190565b60405180910390a15050565b6000546001600160a01b031633146115ad5760405162461bcd60e51b815260040161079b9061533e565b6001600160a01b0381166115d35760405162461bcd60e51b815260040161079b90615373565b600d80546001600160a01b0319166001600160a01b0383161790556040517fc86d00792bf1e12e88a44ba4e23ce500127de980a86aafa6a8b5b964325f92e3906109e3908390614b12565b3360009081526001602081905260409091205460ff1615151461164057600080fd5b610943838383613870565b6000828152600e60209081526040808320548352601a909152902060070154156116875760405162461bcd60e51b815260040161079b90615630565b611692336000613883565b601254336000908152600a60205260409081902080546001919091015491516309435fb560e21b81526001600160a01b039093169263250d7ed4926116e39291600401918252602082015260400190565b60206040518083038186803b1580156116fb57600080fd5b505afa15801561170f573d6000803e3d6000fd5b505050506040513d601f19601f8201168201806040525081019061173391906155cf565b61174f5760405162461bcd60e51b815260040161079b906155ec565b61175a8282336138fa565b600080600080600061176b87611895565b6011546014546040516309fff33560e31b8152600481018890526024810187905260448101869052606481018590526084810184905260a4810191909152959a50939850919650945092506000916001600160a01b0390911690634fff99a89060c40160206040518083038186803b1580156117e657600080fd5b505afa1580156117fa573d6000803e3d6000fd5b505050506040513d601f19601f8201168201806040525081019061181e919061564d565b905060ff81161580159061184457506000888152600e602052604090206001015460ff16155b1561188b576118538882613ac5565b61185d8882613b1e565b8060ff166001141561188b576000888152600e60209081526040808320548352601a90915290206007018890555b5050505050505050565b6000818152600e6020908152604080832054808452601a909252822060060154829182918291829182805b8281101561192d576000848152601a602052604081206006018054839081106118eb576118eb615390565b6000918252602080832090910154808352600e909152604090912060030154909150611917908461566a565b925050808061192590615432565b9150506118c0565b506000988952600e602052604090982060038101546004820154600290920154929a909991985090965090945092505050565b60008060005b8351811015611ac757336000908152600a602090815260408083206001600160a01b03891684526002019091528120855182908790859081106119ab576119ab615390565b60200260200101518152602001908152602001600020541180156119f557506014548482815181106119df576119df615390565b60200260200101516119f1919061566a565b4210155b15611ab557336000908152600a602090815260408083206001600160a01b038916845260020190915281208551909190869084908110611a3757611a37615390565b602002602001015181526020019081526020016000205482611a59919061566a565b336000908152600a602090815260408083206001600160a01b038a1684526002019091528120865192945090918290879085908110611a9a57611a9a615390565b60200260200101518152602001908152602001600020819055505b80611abf81615432565b915050611966565b508015611ccb5760045415611bb557600061271060045483611ae9919061550c565b611af3919061552b565b9050611aff81836153f5565b91506001600160a01b03851615611b8d576007546001600160a01b038681166000908152600c602052604090819020600201549051630107289f60e41b8152919092169163107289f091611b5a91903090869060040161554d565b600060405180830381600087803b158015611b7457600080fd5b505af1158015611b88573d6000803e3d6000fd5b505050505b6001600160a01b0385166000908152600c6020526040902060020154611bb390826140b4565b505b6001600160a01b03841615611c45576007546001600160a01b038581166000908152600c602052604090819020600201549051630107289f60e41b8152919092169163107289f091611c0e91903390869060040161554d565b600060405180830381600087803b158015611c2857600080fd5b505af1158015611c3c573d6000803e3d6000fd5b50505050611ccb565b60065460405163a9059cbb60e01b81526001600160a01b039091169063a9059cbb90611c779033908590600401615682565b602060405180830381600087803b158015611c9157600080fd5b505af1158015611ca5573d6000803e3d6000fd5b505050506040513d601f19601f82011682018060405250810190611cc991906155cf565b505b7f48462eddab712eed4d61f328a488b0145debaa43da5efde2468413e9c5393cf733858584604051611d0094939291906156cb565b60405180910390a19392505050565b3360009081526001602081905260409091205460ff16151514611d3157600080fd5b6109438383836140db565b601560205260009081526040902080546001820180546001600160a01b039092169291611d6890615708565b80601f0160208091040260200160405190810160405280929190818152602001828054611d9490615708565b8015611de15780601f10611db657610100808354040283529160200191611de1565b820191906000526020600020905b815481529060010190602001808311611dc457829003601f168201915b5050505050905082565b6000546001600160a01b03163314611e155760405162461bcd60e51b815260040161079b9061533e565b60005b8251811015611e7c578160016000858481518110611e3857611e38615390565b6020908102919091018101516001600160a01b03168252810191909152604001600020805460ff191691151591909117905580611e7481615432565b915050611e18565b5080151582604051611e8e9190615743565b604051908190038120907f6fe7cd0563aebb5e4e99409417b943dcd23e200b600962ac773009db204233c290600090a35050565b606060098261ffff1681548110611edb57611edb615390565b906000526020600020018054611ef090615708565b80601f0160208091040260200160405190810160405280929190818152602001828054611f1c90615708565b8015611f695780601f10611f3e57610100808354040283529160200191611f69565b820191906000526020600020905b815481529060010190602001808311611f4c57829003601f168201915b50505050509050919050565b6000611f82336000613883565b601254336000908152600a60205260409081902080546001919091015491516309435fb560e21b81526001600160a01b039093169263250d7ed492611fd39291600401918252602082015260400190565b60206040518083038186803b158015611feb57600080fd5b505afa158015611fff573d6000803e3d6000fd5b505050506040513d601f19601f8201168201806040525081019061202391906155cf565b61203f5760405162461bcd60e51b815260040161079b906155ec565b42831161205e5760405162461bcd60e51b815260040161079b90615373565b60ff86166000908152601560205260409020546001600160a01b03166120965760405162461bcd60e51b815260040161079b90615253565b601980549060006120a683615432565b90915550506001600160a01b0388166121de5760ff8616156120f05760405162461bcd60e51b815260206004820152600360248201526245523760e81b604482015260640161079b565b60008251116121295760405162461bcd60e51b81526020600482015260056024820152644552312d3760d81b604482015260640161079b565b6006546040516323b872dd60e01b81526001600160a01b03909116906323b872dd9061215d90339030908a906004016155ab565b602060405180830381600087803b15801561217757600080fd5b505af115801561218b573d6000803e3d6000fd5b505050506040513d601f19601f820116820180604052508101906121af91906155cf565b506019546000908152601a6020908152604090912083516121d89260029092019185019061480d565b50612347565b6000878152601760205260409020600301546001600160a01b031633146122175760405162461bcd60e51b815260040161079b906155ec565b60005b6000888152601760205260409020600601548110156122b257600088815260176020526040812060060180548390811061225657612256615390565b6000918252602080832090910154808352601a90915260409091206005015490915061ffff908116908716141561229f5760405162461bcd60e51b815260040161079b906153c2565b50806122aa81615432565b91505061221a565b506000878152601760209081526040808320600601805482518185028101850190935280835261231c9383018282801561230b57602002820191906000526020600020905b8154815260200190600101908083116122f7575b50505050508860ff1660195461412b565b6000898152601760209081526040909120825192935061234492600690910191840190614891565b50505b8560ff166002148061235a575060ff8616155b156123da5760ff861660009081526015602052604080822054601954915163bd80123160e01b81526001600160a01b039091169263bd801231926123a7929091908a908290600401615782565b600060405180830381600087803b1580156123c157600080fd5b505af11580156123d5573d6000803e3d6000fd5b505050505b601980546000908152601a602090815260408083208054336001600160a01b03199091168117909155845484528184206001018c905584548452818420600301805460ff191660ff8d161790558454845281842060049081018b905585548552828520600501805461ffff191661ffff8c1617905594548452818420600801889055600754818552600a909352818420549151630107289f60e41b81526001600160a01b039093169463107289f094612496949093910161554d565b600060405180830381600087803b1580156124b057600080fd5b505af11580156124c4573d6000803e3d6000fd5b505050507f552e081116c21885e388accbf0275fbfb758238d1b04237fff749061d9a72424338989898989896019548a604051612509999897969594939291906157a1565b60405180910390a150601954979650505050505050565b601a602052600090815260409020805460018201546002830180546001600160a01b0390931693919261255290615708565b80601f016020809104026020016040519081016040528092919081815260200182805461257e90615708565b80156125cb5780601f106125a0576101008083540402835291602001916125cb565b820191906000526020600020905b8154815290600101906020018083116125ae57829003601f168201915b5050506003840154600485015460058601546007870154600890970154959660ff9093169591945061ffff16925088565b6000546001600160a01b031633146126265760405162461bcd60e51b815260040161079b9061533e565b6001600160a01b03811661264c5760405162461bcd60e51b815260040161079b90615373565b600780546001600160a01b0319166001600160a01b0383161790556040517fb277bcb19384acdda5bb6f18f70aaeb940819c7a7b57499da45695d5c2091b0e906109e3908390614b12565b600c602052600090815260409020805481906126b290615708565b80601f01602080910402602001604051908101604052809291908181526020018280546126de90615708565b801561272b5780601f106127005761010080835404028352916020019161272b565b820191906000526020600020905b81548152906001019060200180831161270e57829003601f168201915b50505050509080600101805461274090615708565b80601f016020809104026020016040519081016040528092919081815260200182805461276c90615708565b80156127b95780601f1061278e576101008083540402835291602001916127b9565b820191906000526020600020905b81548152906001019060200180831161279c57829003601f168201915b50505050600283015460039093015491929161ffff8082169250620100009091041685565b6000546001600160a01b031633146128085760405162461bcd60e51b815260040161079b9061533e565b6001600160a01b03811661282e5760405162461bcd60e51b815260040161079b90615373565b601380546001600160a01b0319166001600160a01b0383161790556040517f470ec44ead58d8875c956a389bdb710dcdc3cfcd1a601540691b30b5efcf7c77906109e3908390614b12565b6017602052600090815260409020805460018201546002830180546001600160a01b039093169391926128ab90615708565b80601f01602080910402602001604051908101604052809291908181526020018280546128d790615708565b80156129245780601f106128f957610100808354040283529160200191612924565b820191906000526020600020905b81548152906001019060200180831161290757829003601f168201915b505050506003830154600484015460059094015492936001600160a01b039091169290915086565b6000838152601a60205260409020546001600160a01b031633146129825760405162461bcd60e51b815260040161079b906155ec565b6000838152601a60205260409020600701541580156129b057506000838152601a6020526040902060060154155b80156129cd57506000838152601a60205260409020600801544210155b6129e95760405162461bcd60e51b815260040161079b90615609565b6000838152601a602052604090206003015460ff16612a1a5760405162461bcd60e51b815260040161079b90615253565b428111612a395760405162461bcd60e51b815260040161079b90615373565b6000838152601a60209081526040918290206008810184905560040184905581518581529081018490529081018290527f4def1aaccaac82e9103ef071fe31f5651a3e338b2ae037cfb7725c3eca9fb51690606001610d11565b6006546040516323b872dd60e01b81526001600160a01b03909116906323b872dd90612ac7903390309086906004016155ab565b602060405180830381600087803b158015612ae157600080fd5b505af1158015612af5573d6000803e3d6000fd5b505050506040513d601f19601f82011682018060405250810190612b1991906155cf565b506001600160a01b0382166000908152600a6020526040902054612b4e57612b40816142f2565b612b4a8282613883565b5050565b6001600160a01b0382166000908152600a602052604081206001018054839290612b79908490615809565b90915550612b889050816142f2565b7fbc09618bc77172ebc0e046c72f495cd682958c43dd15faff368975f18a3d5a0a826000836040516115779392919061584a565b8051825114612bdd5760405162461bcd60e51b815260040161079b90615373565b60005b8251811015612ea9576000601a6000858481518110612c0157612c01615390565b60200260200101518152602001908152602001600020600701541115612e9757600060176000601a6000878681518110612c3d57612c3d615390565b6020026020010151815260200190815260200160002060010154815260200190815260200160002060000160009054906101000a90046001600160a01b03169050806001600160a01b0316336001600160a01b031614612caf5760405162461bcd60e51b815260040161079b906155ec565b601a6000858481518110612cc557612cc5615390565b60209081029190910181015182528101919091526040016000206003015460ff1615801590612d2b5750601a6000858481518110612d0557612d05615390565b60209081029190910181015182528101919091526040016000206003015460ff16600214155b612d475760405162461bcd60e51b815260040161079b90615373565b60156000601a6000878681518110612d6157612d61615390565b602090810291909101810151825281810192909252604090810160009081206003015460ff16845291830193909352910190205484516001600160a01b039091169063bd80123190869085908110612dbb57612dbb615390565b6020026020010151858581518110612dd557612dd5615390565b6020026020010151601a6000898881518110612df357612df3615390565b6020026020010151815260200190815260200160002060040154600c6000876001600160a01b03166001600160a01b0316815260200190815260200160002060030160009054906101000a900461ffff166040518563ffffffff1660e01b8152600401612e639493929190615782565b600060405180830381600087803b158015612e7d57600080fd5b505af1158015612e91573d6000803e3d6000fd5b50505050505b80612ea181615432565b915050612be0565b507f49de03a48f2d145bbebe50d32dffc47109f0846c23f21290c9f54a741aab7f053383836040516115779392919061586b565b6000546001600160a01b03163314612f075760405162461bcd60e51b815260040161079b9061533e565b6001600160a01b038116612f2d5760405162461bcd60e51b815260040161079b90615373565b601180546001600160a01b0319166001600160a01b0383161790556040517f1b4cbe91ecf2e88172c5623b0fbeb6f8eea92b0d825306a6237625dc2452259a906109e3908390614b12565b6000546001600160a01b03163314612fa25760405162461bcd60e51b815260040161079b9061533e565b6001600160a01b0381166130075760405162461bcd60e51b815260206004820152602660248201527f4f776e61626c653a206e6577206f776e657220697320746865207a65726f206160448201526564647265737360d01b606482015260840161079b565b6130108161430c565b50565b6000546001600160a01b0316331461303d5760405162461bcd60e51b815260040161079b9061533e565b6000811161305d5760405162461bcd60e51b815260040161079b90615373565b60148190556040518181527fddda2129649b8d3c13605fd431e58aa0af3eda0702c0a57e171a9ed90989d320906020016109e3565b80518251146130a3576130a36158ab565b60005b82518110156131d657601760008483815181106130c5576130c5615390565b6020908102919091018101518252810191909152604001600020546001600160a01b031633146131075760405162461bcd60e51b815260040161079b906155ec565b81818151811061311957613119615390565b60200260200101516017600085848151811061313757613137615390565b60200260200101518152602001908152602001600020600401600082825461315f919061566a565b9250508190555081818151811061317857613178615390565b60200260200101516017600085848151811061319657613196615390565b6020026020010151815260200190815260200160002060050160008282546131be919061566a565b909155508190506131ce81615432565b9150506130a6565b507f9c3aabf4229f3c7892abb038272114250e74a07e02539cb9114ef52ec2c1a48e601760008460008151811061320f5761320f615390565b60209081029190910181015182528101919091526040908101600020549051611577916001600160a01b0316908590859061586b565b6000848152601a6020526040812060070154156132745760405162461bcd60e51b815260040161079b90615630565b6000858152601a60205260409020600601546132bb576000858152601a60205260409020600801544211156132bb5760405162461bcd60e51b815260040161079b90615630565b6000858152601a602052604090206005015461ffff8481169116146133085760405162461bcd60e51b815260206004820152600360248201526245523960e81b604482015260640161079b565b613313336000613883565b601254336000908152600a60205260409081902080546001919091015491516309435fb560e21b81526001600160a01b039093169263250d7ed4926133649291600401918252602082015260400190565b60206040518083038186803b15801561337c57600080fd5b505afa158015613390573d6000803e3d6000fd5b505050506040513d601f19601f820116820180604052508101906133b491906155cf565b6133d05760405162461bcd60e51b815260040161079b906155ec565b60006133db8661435c565b6013549091506001600160a01b0316156134a6576013546040516318e8f49560e11b81526001600160a01b03909116906331d1e92a9061342190869085906004016158c1565b60206040518083038186803b15801561343957600080fd5b505afa15801561344d573d6000803e3d6000fd5b505050506040513d601f19601f8201168201806040525081019061347191906155cf565b6134a65760405162461bcd60e51b815260040161079b906020808252600490820152630455231360e41b604082015260600190565b60006134b533888888886144b9565b6000888152601a602090815260408220600601805460018101825590835291200181905592505050949350505050565b60168054600091826134f683615432565b90915550506001600160a01b03851660009081526018602090815260408083208784529091529020541561353c5760405162461bcd60e51b815260040161079b906153c2565b60168054600090815260176020908152604080832080546001600160a01b0319166001600160a01b038b16179055835483528083206001018890559254825291902084516135929260029092019186019061480d565b5060168054600090815260176020908152604080832060030180546001600160a01b0319166001600160a01b0388811691909117909155935493891683526018825280832088845290915290819020829055517f558f31dc5dee6a560ed9a994f922e339f40c7c310f47862194463a2c68908d6c916136189188918891889088906158da565b60405180910390a150601654949350505050565b6000805b60008481526017602052604090206006015481101561386857600084815260176020526040812060060180548390811061366c5761366c615390565b6000918252602080832090910154808352601a90915260409091206003015490915060ff16158015906136af57506000818152601a602052604090206007015415155b80156136bb5750600084115b1561385557600085815260176020908152604080832054848452601a808452828520600381015460ff1686526015855283862054600d54888852929095526007015492516331a9108f60e11b815260048101939093526001600160a01b039182169493821692631899ca5f9287928792911690636352211e9060240160206040518083038186803b15801561374f57600080fd5b505afa158015613763573d6000803e3d6000fd5b505050506040513d601f19601f820116820180604052508101906137879190615270565b6001600160a01b0387166000908152600c602090815260408083206003908101548c8552601a8452828520600701548552600e90935292819020905160e088901b6001600160e01b03191681526137f2969594938f9362010000900461ffff169201906004016152d6565b602060405180830381600087803b15801561380c57600080fd5b505af1158015613820573d6000803e3d6000fd5b505050506040513d601f19601f820116820180604052508101906138449190615325565b905061385081876153f5565b955050505b508061386081615432565b915050613630565b509092915050565b6109438361387c61456c565b8385614580565b6001600160a01b0382166000908152600a6020526040902054612b4a576001600160a01b0382166000908152600a6020526040908190206103e8808255600190910183905590517f9355839b7b67fd6e2485ad85238a7449f6ded48cbe176bd3c463dd2b645ff1ba9161157791859190859061584a565b6000838152600e602052604090206001015460ff161561392c5760405162461bcd60e51b815260040161079b90615630565b6001600160a01b0381166000908152600f6020908152604080832086845290915290205460ff16156139705760405162461bcd60e51b815260040161079b9061591d565b60ff8216613a1d576001600160a01b0381166000908152601060209081526040808320868452600e8352818420548452909152902054156139c35760405162461bcd60e51b815260040161079b9061591d565b6000838152600e602090815260408083206003810180546001810182559085528385200180546001600160a01b0319166001600160a01b038716908117909155845260108352818420905484529091529020839055613a58565b6000838152600e602090815260408220600401805460018101825590835291200180546001600160a01b0319166001600160a01b0383161790555b6001600160a01b0381166000818152600f60209081526040808320878452825291829020805460ff1916600117905581518681529081019290925260ff8416908201527f302c645d2268a36235b96cfc33f21f85d7dd6525b340b801899e8b8d7846c44390606001610d11565b6000828152600e60205260409081902060018101805460ff191660ff85161790554260028201555490517fbdee5e861830ed1c224df6174df0128922d6b8e4dd09ae2afe2aaf53e32db0da916115779185918591614c77565b60125460408051630d9f6b9160e11b815290516001926000926001600160a01b0390911691631b3ed72291600480820192602092909190829003018186803b158015613b6957600080fd5b505afa158015613b7d573d6000803e3d6000fd5b505050506040513d601f19601f82011682018060405250810190613ba1919061564d565b90508260ff1660021415613bb55760001991505b601254600d546040516331a9108f60e11b81526004810187905260009283926001600160a01b0391821692630b9c8dce92600a928692911690636352211e9060240160206040518083038186803b158015613c0f57600080fd5b505afa158015613c23573d6000803e3d6000fd5b505050506040513d601f19601f82011682018060405250810190613c479190615270565b6001600160a01b03168152602081019190915260409081016000205490516001600160e01b031960e084901b168152600481019190915260ff88166024820152604401604080518083038186803b158015613ca157600080fd5b505afa158015613cb5573d6000803e3d6000fd5b505050506040513d601f19601f82011682018060405250810190613cd9919061593a565b600d546040516331a9108f60e11b8152600481018a9052929450909250613db4916001600160a01b0390911690636352211e9060240160206040518083038186803b158015613d2757600080fd5b505afa158015613d3b573d6000803e3d6000fd5b505050506040513d601f19601f82011682018060405250810190613d5f9190615270565b600086900b6064613d7360ff88168761550c565b613d7d919061552b565b613d87919061595e565b600087900b6064613d9b60ff89168761550c565b613da5919061552b565b613daf919061595e565b614677565b505060005b6000858152600e6020526040902060030154811015613f25576012546000868152600e602052604081206003018054919283926001600160a01b0390911691630b9c8dce91600a91859188908110613e1357613e13615390565b6000918252602080832091909101546001600160a01b03168352820192909252604090810190912054905160e083901b6001600160e01b0319168152600481019190915260ff89166024820152604401604080518083038186803b158015613e7a57600080fd5b505afa158015613e8e573d6000803e3d6000fd5b505050506040513d601f19601f82011682018060405250810190613eb2919061593a565b91509150613f10600e60008981526020019081526020016000206003018481548110613ee057613ee0615390565b60009182526020822001546001600160a01b031690613f029088900b8561595e565b613daf600089900b8561595e565b50508080613f1d90615432565b915050613db9565b5060005b6000858152600e60205260409020600401548110156140ad576012546000868152600e602052604081206004018054919283926001600160a01b0390911691630b9c8dce91600a91859188908110613f8357613f83615390565b6000918252602080832091909101546001600160a01b03168352820192909252604090810190912054905160e083901b6001600160e01b0319168152600481019190915260ff89166024820152604401604080518083038186803b158015613fea57600080fd5b505afa158015613ffe573d6000803e3d6000fd5b505050506040513d601f19601f82011682018060405250810190614022919061593a565b91509150614098600e6000898152602001908152602001600020600401848154811061405057614050615390565b60009182526020822001546001600160a01b0316906140729088900b8561595e565b61407e9060001961595e565b61408c600089900b8561595e565b613daf9060001961595e565b505080806140a590615432565b915050613f29565b5050505050565b600082815260056020526040812080548392906140d290849061566a565b90915550505050565b60005b825181101561412557614113846140f361456c565b8486858151811061410657614106615390565b6020026020010151614580565b8061411d81615432565b9150506140de565b50505050565b606060008451600161413d919061566a565b6001600160401b038111156141545761415461492b565b60405190808252806020026020018201604052801561417d578160200160208202803683370190505b5090508051600114156141b057828160008151811061419e5761419e615390565b60209081029190910101529050610bcc565b6000600186516141c091906153f5565b90505b801561421d57601a60008783815181106141df576141df615390565b60209081029190910181015182528101919091526040016000206003015460ff16851061420b5761421d565b80614215816159e3565b9150506141c3565b60005b82518110156142e75781811161426d5786818151811061424257614242615390565b602002602001015183828151811061425c5761425c615390565b6020026020010181815250506142d5565b61427882600161566a565b811415614292578483828151811061425c5761425c615390565b8661429e6001836153f5565b815181106142ae576142ae615390565b60200260200101518382815181106142c8576142c8615390565b6020026020010181815250505b806142df81615432565b915050614220565b509095945050505050565b801561301057806002546143069190615809565b60025550565b600080546001600160a01b038381166001600160a01b0319831681178455604051919092169283917f8be0079c531659141344cd1fd0a4f28419497f9722a3daafe3b4186f6b6457e09190a35050565b6000818152601a6020526040812060060154606091906001600160401b038111156143895761438961492b565b6040519080825280602002602001820160405280156143b2578160200160208202803683370190505b50905060005b6000848152601a60205260409020600601548110156144b257600d546000858152601a6020526040902060060180546001600160a01b039092169163d6f323c691908490811061440a5761440a615390565b90600052602060002001546040518263ffffffff1660e01b815260040161443391815260200190565b60206040518083038186803b15801561444b57600080fd5b505afa15801561445f573d6000803e3d6000fd5b505050506040513d601f19601f820116820180604052508101906144839190615325565b82828151811061449557614495615390565b6020908102919091010152806144aa81615432565b9150506143b8565b5092915050565b600d54604051636a18f8ef60e01b815260009182916001600160a01b0390911690636a18f8ef906144f6908a908a908a908a908a906004016159fa565b602060405180830381600087803b15801561451057600080fd5b505af1158015614524573d6000803e3d6000fd5b505050506040513d601f19601f820116820180604052508101906145489190615325565b6000818152600e602052604090208781554260029091015591505095945050505050565b600061457b620151804261552b565b905090565b6001600160a01b0381166000908152600a60205260409020546145b55760405162461bcd60e51b815260040161079b906153c2565b6001600160a01b038082166000908152600a60209081526040808320938816835260029093018152828220868352905220546145f18382615809565b6001600160a01b038381166000818152600a60209081526040808320948b16808452600290950182528083208a845282529182902094909455805191825292810191909152908101859052606081018490527f7a3b7621e1e2606fa77559253d4ea69786f77a1f71df1c5728f593f17b0b291b9060800160405180910390a15050505050565b6001600160a01b0383166000908152600a602052604090205461469b908390615809565b6001600160a01b0384166000908152600a602052604081209190915581121561470f576001600160a01b0383166000908152600a60205260409020600101546146e5908290615809565b6001600160a01b0384166000908152600a602052604090206001015561470a816147e1565b614774565b600654604051634d24848760e11b81526001600160a01b0390911690639a49090e906147419086908590600401615682565b600060405180830381600087803b15801561475b57600080fd5b505af115801561476f573d6000803e3d6000fd5b505050505b6001600160a01b0383166000908152600a60205260409020546147ae576001600160a01b0383166000908152600a60205260409020600190555b7fbc09618bc77172ebc0e046c72f495cd682958c43dd15faff368975f18a3d5a0a838383604051610d119392919061584a565b80600360008282546147f3919061566a565b9091555061301090506148088260001961595e565b6142f2565b82805461481990615708565b90600052602060002090601f01602090048101928261483b5760008555614881565b82601f1061485457805160ff1916838001178555614881565b82800160010185558215614881579182015b82811115614881578251825591602001919060010190614866565b5061488d9291506148cb565b5090565b8280548282559060005260206000209081019282156148815791602002820182811115614881578251825591602001919060010190614866565b5b8082111561488d57600081556001016148cc565b6000602082840312156148f257600080fd5b5035919050565b6001600160a01b038116811461301057600080fd5b60006020828403121561492057600080fd5b8135610bcc816148f9565b634e487b7160e01b600052604160045260246000fd5b604051601f8201601f191681016001600160401b03811182821017156149695761496961492b565b604052919050565b60006001600160401b0382111561498a5761498a61492b565b5060051b60200190565b600082601f8301126149a557600080fd5b81356001600160401b038111156149be576149be61492b565b6149d1601f8201601f1916602001614941565b8181528460208386010111156149e657600080fd5b816020850160208301376000918101602001919091529392505050565b60006020808385031215614a1657600080fd5b82356001600160401b0380821115614a2d57600080fd5b818501915085601f830112614a4157600080fd5b8135614a54614a4f82614971565b614941565b81815260059190911b83018401908481019088831115614a7357600080fd5b8585015b83811015614aab57803585811115614a8f5760008081fd5b614a9d8b89838a0101614994565b845250918601918601614a77565b5098975050505050505050565b600080600060608486031215614acd57600080fd5b8335925060208401356001600160401b03811115614aea57600080fd5b614af686828701614994565b9250506040840135614b07816148f9565b809150509250925092565b6001600160a01b0391909116815260200190565b60ff8116811461301057600080fd5b600080600060608486031215614b4a57600080fd5b8335614b5581614b26565b92506020840135614b65816148f9565b915060408401356001600160401b03811115614b8057600080fd5b614b8c86828701614994565b9150509250925092565b803561ffff81168114614ba857600080fd5b919050565b60008060408385031215614bc057600080fd5b614bc983614b96565b9150614bd760208401614b96565b90509250929050565b600080600080600060a08688031215614bf857600080fd5b8535614c03816148f9565b945060208601356001600160401b0380821115614c1f57600080fd5b614c2b89838a01614994565b95506040880135915080821115614c4157600080fd5b50614c4e88828901614994565b935050614c5d60608701614b96565b9150614c6b60808701614b96565b90509295509295909350565b92835260ff919091166020830152604082015260600190565b600080600060608486031215614ca557600080fd5b8335614cb0816148f9565b92506020840135614cc0816148f9565b929592945050506040919091013590565b60008060408385031215614ce457600080fd5b823591506020830135614cf681614b26565b809150509250929050565b600082601f830112614d1257600080fd5b81356020614d22614a4f83614971565b82815260059290921b84018101918181019086841115614d4157600080fd5b8286015b84811015614d5c5780358352918301918301614d45565b509695505050505050565b60008060408385031215614d7a57600080fd5b8235614d85816148f9565b915060208301356001600160401b03811115614da057600080fd5b614dac85828601614d01565b9150509250929050565b600060208284031215614dc857600080fd5b81356001600160401b03811115614dde57600080fd5b614dea84828501614994565b949350505050565b600082601f830112614e0357600080fd5b81356020614e13614a4f83614971565b82815260059290921b84018101918181019086841115614e3257600080fd5b8286015b84811015614d5c578035614e49816148f9565b8352918301918301614e36565b600080600060608486031215614e6b57600080fd5b8335614e76816148f9565b925060208401356001600160401b03811115614e9157600080fd5b614e9d86828701614df2565b925050604084013590509250925092565b600060208284031215614ec057600080fd5b8135610bcc81614b26565b60005b83811015614ee6578181015183820152602001614ece565b838111156141255750506000910152565b60008151808452614f0f816020860160208601614ecb565b601f01601f19169290920160200192915050565b6001600160a01b0383168152604060208201819052600090614dea90830184614ef7565b801515811461301057600080fd5b60008060408385031215614f6857600080fd5b82356001600160401b03811115614f7e57600080fd5b614f8a85828601614df2565b9250506020830135614cf681614f47565b600060208284031215614fad57600080fd5b610bcc82614b96565b602081526000610bcc6020830184614ef7565b600080600080600080600060e0888a031215614fe457600080fd5b8735614fef816148f9565b965060208801359550604088013561500681614b26565b94506060880135935061501b60808901614b96565b925060a0880135915060c08801356001600160401b0381111561503d57600080fd5b6150498a828b01614994565b91505092959891949750929550565b6001600160a01b038916815260208101889052610100604082018190526000906150848382018a614ef7565b60ff9890981660608401525050608081019490945261ffff9290921660a084015260c083015260e0909101529392505050565b60a0815260006150ca60a0830188614ef7565b82810360208401526150dc8188614ef7565b6040840196909652505061ffff9283166060820152911660809091015292915050565b600060018060a01b03808916835287602084015260c0604084015261512760c0840188614ef7565b9516606083015250608081019290925260a0909101529392505050565b60008060006060848603121561515957600080fd5b505081359360208301359350604090920135919050565b6000806040838503121561518357600080fd5b823561518e816148f9565b946020939093013593505050565b600080604083850312156151af57600080fd5b82356001600160401b03808211156151c657600080fd5b6151d286838701614d01565b935060208501359150808211156151e857600080fd5b50614dac85828601614d01565b6000806000806080858703121561520b57600080fd5b8435935060208501356001600160401b0381111561522857600080fd5b61523487828801614994565b93505061524360408601614b96565b9396929550929360600135925050565b60208082526003908201526222a91b60e91b604082015260600190565b60006020828403121561528257600080fd5b8151610bcc816148f9565b6000815480845260208085019450836000528060002060005b838110156152cb5781546001600160a01b0316875295820195600191820191016152a6565b509495945050505050565b8681526001600160a01b038681166020830152851660408201526060810184905261ffff8316608082015260c060a082018190526000906153199083018461528d565b98975050505050505050565b60006020828403121561533757600080fd5b5051919050565b6020808252818101527f4f776e61626c653a2063616c6c6572206973206e6f7420746865206f776e6572604082015260600190565b60208082526003908201526245523160e81b604082015260600190565b634e487b7160e01b600052603260045260246000fd5b600082516153b8818460208701614ecb565b9190910192915050565b60208082526003908201526204552360ec1b604082015260600190565b634e487b7160e01b600052601160045260246000fd5b600082821015615407576154076153df565b500390565b60408152600061541f6040830185614ef7565b905061ffff831660208301529392505050565b6000600019821415615446576154466153df565b5060010190565b60ff841681526001600160a01b038316602082015260606040820181905260009061547a90830184614ef7565b95945050505050565b6060815260006154966060830186614ef7565b6001600160a01b039490941660208301525060400152919050565b60018060a01b038716815285602082015260c0604082015260006154d860c0830187614ef7565b82810360608401526154ea8187614ef7565b91505061ffff808516608084015280841660a084015250979650505050505050565b6000816000190483118215151615615526576155266153df565b500290565b60008261554857634e487b7160e01b600052601260045260246000fd5b500490565b9283526001600160a01b03919091166020830152604082015260600190565b60008083128015600160ff1b85018412161561558a5761558a6153df565b6001600160ff1b03840183138116156155a5576155a56153df565b50500390565b6001600160a01b039384168152919092166020820152604081019190915260600190565b6000602082840312156155e157600080fd5b8151610bcc81614f47565b60208082526003908201526245523560e81b604082015260600190565b6020808252600d908201526c10d85b9b9bdd0810d85b98d95b609a1b604082015260600190565b60208082526003908201526245523360e81b604082015260600190565b60006020828403121561565f57600080fd5b8151610bcc81614b26565b6000821982111561567d5761567d6153df565b500190565b6001600160a01b03929092168252602082015260400190565b600081518084526020808501945080840160005b838110156152cb578151875295820195908201906001016156af565b6001600160a01b038581168252841660208201526080604082018190526000906156f79083018561569b565b905082606083015295945050505050565b600181811c9082168061571c57607f821691505b6020821081141561573d57634e487b7160e01b600052602260045260246000fd5b50919050565b815160009082906020808601845b838110156157765781516001600160a01b031685529382019390820190600101615751565b50929695505050505050565b9384526020840192909252604083015261ffff16606082015260800190565b600061012060018060a01b03808d168452808c1660208501525089604084015260ff8916606084015287608084015261ffff871660a08401528560c08401528460e0840152806101008401526157f981840185614ef7565b9c9b505050505050505050505050565b600080821280156001600160ff1b038490038513161561582b5761582b6153df565b600160ff1b8390038412811615615844576158446153df565b50500190565b6001600160a01b039390931683526020830191909152604082015260600190565b6001600160a01b038416815260606020820181905260009061588f9083018561569b565b82810360408401526158a1818561569b565b9695505050505050565b634e487b7160e01b600052600160045260246000fd5b828152604060208201526000614dea604083018461569b565b600060018060a01b03808816835286602084015285604084015260a0606084015261590860a0840186614ef7565b91508084166080840152509695505050505050565b60208082526003908201526211548d60ea1b604082015260600190565b6000806040838503121561594d57600080fd5b505080516020909101519092909150565b60006001600160ff1b0381841382841380821686840486111615615984576159846153df565b600160ff1b60008712828116878305891216156159a3576159a36153df565b600087129250878205871284841616156159bf576159bf6153df565b878505871281841616156159d5576159d56153df565b505050929093029392505050565b6000816159f2576159f26153df565b506000190190565b60018060a01b038616815284602082015260a060408201526000615a2160a0830186614ef7565b61ffff9490941660608301525060800152939250505056fea2646970667358221220d2f6b09af2f84ebf08518040b5240690d7986f2ae6afa3eef0dc56c184218e2b64736f6c63430008090033",
  "linkReferences": {},
  "deployedLinkReferences": {}
}