{
  "_format": "hh-sol-artifact-1",
  "contractName": "SubtitleSystem",
  "sourceName": "contracts/SubtitleSystem.sol",
  "abi": [
    {
      "inputs": [
        {
          "internalType": "address",
          "name": "owner",
          "type": "address"
        }
      ],
      "stateMutability": "nonpayable",
      "type": "constructor"
    },
    {
      "anonymous": false,
      "inputs": [
        {
          "indexed": false,
          "internalType": "uint256",
          "name": "applyId",
          "type": "uint256"
        }
      ],
      "name": "ApplicationCancel",
      "type": "event"
    },
    {
      "anonymous": false,
      "inputs": [
        {
          "indexed": false,
          "internalType": "uint256",
          "name": "applyId",
          "type": "uint256"
        },
        {
          "indexed": false,
          "internalType": "uint256",
          "name": "amount",
          "type": "uint256"
        },
        {
          "indexed": false,
          "internalType": "uint256",
          "name": "deadline",
          "type": "uint256"
        }
      ],
      "name": "ApplicationRecover",
      "type": "event"
    },
    {
      "anonymous": false,
      "inputs": [
        {
          "indexed": false,
          "internalType": "uint256",
          "name": "applyId",
          "type": "uint256"
        }
      ],
      "name": "ApplicationReset",
      "type": "event"
    },
    {
      "anonymous": false,
      "inputs": [
        {
          "indexed": false,
          "internalType": "address",
          "name": "applicant",
          "type": "address"
        },
        {
          "indexed": false,
          "internalType": "address",
          "name": "platform",
          "type": "address"
        },
        {
          "indexed": false,
          "internalType": "uint256",
          "name": "videoId",
          "type": "uint256"
        },
        {
          "indexed": false,
          "internalType": "uint8",
          "name": "strategy",
          "type": "uint8"
        },
        {
          "indexed": false,
          "internalType": "uint256",
          "name": "amount",
          "type": "uint256"
        },
        {
          "indexed": false,
          "internalType": "uint16",
          "name": "language",
          "type": "uint16"
        },
        {
          "indexed": false,
          "internalType": "uint256",
          "name": "deadline",
          "type": "uint256"
        },
        {
          "indexed": false,
          "internalType": "uint256",
          "name": "applyId",
          "type": "uint256"
        },
        {
          "indexed": false,
          "internalType": "string",
          "name": "src",
          "type": "string"
        }
      ],
      "name": "ApplicationSubmit",
      "type": "event"
    },
    {
      "anonymous": false,
      "inputs": [
        {
          "indexed": false,
          "internalType": "uint256",
          "name": "applyId",
          "type": "uint256"
        },
        {
          "indexed": false,
          "internalType": "uint256",
          "name": "newAmount",
          "type": "uint256"
        },
        {
          "indexed": false,
          "internalType": "uint256",
          "name": "newDeadline",
          "type": "uint256"
        }
      ],
      "name": "ApplicationUpdate",
      "type": "event"
    },
    {
      "anonymous": false,
      "inputs": [
        {
          "indexed": true,
          "internalType": "address[]",
          "name": "opeators",
          "type": "address[]"
        },
        {
          "indexed": true,
          "internalType": "bool",
          "name": "state",
          "type": "bool"
        }
      ],
      "name": "OpeatorsStateChange",
      "type": "event"
    },
    {
      "anonymous": false,
      "inputs": [
        {
          "indexed": true,
          "internalType": "address",
          "name": "previousOwner",
          "type": "address"
        },
        {
          "indexed": true,
          "internalType": "address",
          "name": "newOwner",
          "type": "address"
        }
      ],
      "name": "OwnershipTransferred",
      "type": "event"
    },
    {
      "anonymous": false,
      "inputs": [
        {
          "indexed": false,
          "internalType": "address",
          "name": "platform",
          "type": "address"
        },
        {
          "indexed": false,
          "internalType": "uint256",
          "name": "id",
          "type": "uint256"
        },
        {
          "indexed": false,
          "internalType": "string",
          "name": "name",
          "type": "string"
        },
        {
          "indexed": false,
          "internalType": "string",
          "name": "symbol",
          "type": "string"
        },
        {
          "indexed": false,
          "internalType": "uint16",
          "name": "rate1",
          "type": "uint16"
        },
        {
          "indexed": false,
          "internalType": "uint16",
          "name": "rate2",
          "type": "uint16"
        }
      ],
      "name": "PlatformJoin",
      "type": "event"
    },
    {
      "anonymous": false,
      "inputs": [
        {
          "indexed": false,
          "internalType": "address",
          "name": "platform",
          "type": "address"
        },
        {
          "indexed": false,
          "internalType": "uint16",
          "name": "rate1",
          "type": "uint16"
        },
        {
          "indexed": false,
          "internalType": "uint16",
          "name": "rate2",
          "type": "uint16"
        }
      ],
      "name": "PlatformSetRate",
      "type": "event"
    },
    {
      "anonymous": false,
      "inputs": [
        {
          "indexed": false,
          "internalType": "string",
          "name": "language",
          "type": "string"
        },
        {
          "indexed": false,
          "internalType": "uint16",
          "name": "id",
          "type": "uint16"
        }
      ],
      "name": "RegisterLanguage",
      "type": "event"
    },
    {
      "anonymous": false,
      "inputs": [
        {
          "indexed": false,
          "internalType": "uint256",
          "name": "subtitleId",
          "type": "uint256"
        },
        {
          "indexed": false,
          "internalType": "address",
          "name": "evaluator",
          "type": "address"
        },
        {
          "indexed": false,
          "internalType": "uint8",
          "name": "attitude",
          "type": "uint8"
        }
      ],
      "name": "SubitlteGetEvaluation",
      "type": "event"
    },
    {
      "anonymous": false,
      "inputs": [
        {
          "indexed": false,
          "internalType": "uint256",
          "name": "subtitleId",
          "type": "uint256"
        },
        {
          "indexed": false,
          "internalType": "uint8",
          "name": "state",
          "type": "uint8"
        },
        {
          "indexed": false,
          "internalType": "uint256",
          "name": "applyId",
          "type": "uint256"
        }
      ],
      "name": "SubtilteStateChange",
      "type": "event"
    },
    {
      "anonymous": false,
      "inputs": [
        {
          "indexed": false,
          "internalType": "address",
          "name": "platform",
          "type": "address"
        },
        {
          "indexed": false,
          "internalType": "uint256[]",
          "name": "subtitleId",
          "type": "uint256[]"
        },
        {
          "indexed": false,
          "internalType": "uint256[]",
          "name": "counts",
          "type": "uint256[]"
        }
      ],
      "name": "SubtitleCountsUpdate",
      "type": "event"
    },
    {
      "anonymous": false,
      "inputs": [
        {
          "indexed": false,
          "internalType": "address",
          "name": "newAccess",
          "type": "address"
        }
      ],
      "name": "SystemSetAccess",
      "type": "event"
    },
    {
      "anonymous": false,
      "inputs": [
        {
          "indexed": false,
          "internalType": "address",
          "name": "newAudit",
          "type": "address"
        }
      ],
      "name": "SystemSetAudit",
      "type": "event"
    },
    {
      "anonymous": false,
      "inputs": [
        {
          "indexed": false,
          "internalType": "address",
          "name": "newDetection",
          "type": "address"
        }
      ],
      "name": "SystemSetDetection",
      "type": "event"
    },
    {
      "anonymous": false,
      "inputs": [
        {
          "indexed": false,
          "internalType": "uint256",
          "name": "time",
          "type": "uint256"
        }
      ],
      "name": "SystemSetLockUpTime",
      "type": "event"
    },
    {
      "anonymous": false,
      "inputs": [
        {
          "indexed": false,
          "internalType": "uint8",
          "name": "strategyId",
          "type": "uint8"
        },
        {
          "indexed": false,
          "internalType": "address",
          "name": "strategy",
          "type": "address"
        },
        {
          "indexed": false,
          "internalType": "string",
          "name": "notes",
          "type": "string"
        }
      ],
      "name": "SystemSetSettlement",
      "type": "event"
    },
    {
      "anonymous": false,
      "inputs": [
        {
          "indexed": false,
          "internalType": "address",
          "name": "token",
          "type": "address"
        }
      ],
      "name": "SystemSetSubtitleToken",
      "type": "event"
    },
    {
      "anonymous": false,
      "inputs": [
        {
          "indexed": false,
          "internalType": "address",
          "name": "token",
          "type": "address"
        }
      ],
      "name": "SystemSetVideoToken",
      "type": "event"
    },
    {
      "anonymous": false,
      "inputs": [
        {
          "indexed": false,
          "internalType": "address",
          "name": "token",
          "type": "address"
        }
      ],
      "name": "SystemSetZimuToken",
      "type": "event"
    },
    {
      "anonymous": false,
      "inputs": [
        {
          "indexed": false,
          "internalType": "address",
          "name": "usr",
          "type": "address"
        },
        {
          "indexed": false,
          "internalType": "int256",
          "name": "reputationSpread",
          "type": "int256"
        },
        {
          "indexed": false,
          "internalType": "int256",
          "name": "tokenSpread",
          "type": "int256"
        }
      ],
      "name": "UserInfoUpdate",
      "type": "event"
    },
    {
      "anonymous": false,
      "inputs": [
        {
          "indexed": false,
          "internalType": "address",
          "name": "user",
          "type": "address"
        },
        {
          "indexed": false,
          "internalType": "uint256",
          "name": "reputation",
          "type": "uint256"
        },
        {
          "indexed": false,
          "internalType": "int256",
          "name": "deposit",
          "type": "int256"
        }
      ],
      "name": "UserJoin",
      "type": "event"
    },
    {
      "anonymous": false,
      "inputs": [
        {
          "indexed": false,
          "internalType": "address",
          "name": "user",
          "type": "address"
        },
        {
          "indexed": false,
          "internalType": "address",
          "name": "platform",
          "type": "address"
        },
        {
          "indexed": false,
          "internalType": "uint256",
          "name": "day",
          "type": "uint256"
        },
        {
          "indexed": false,
          "internalType": "int256",
          "name": "reward",
          "type": "int256"
        }
      ],
      "name": "UserLockRewardUpdate",
      "type": "event"
    },
    {
      "anonymous": false,
      "inputs": [
        {
          "indexed": false,
          "internalType": "address",
          "name": "user",
          "type": "address"
        },
        {
          "indexed": false,
          "internalType": "address",
          "name": "platform",
          "type": "address"
        },
        {
          "indexed": false,
          "internalType": "uint256[]",
          "name": "day",
          "type": "uint256[]"
        },
        {
          "indexed": false,
          "internalType": "uint256",
          "name": "all",
          "type": "uint256"
        }
      ],
      "name": "UserWithdraw",
      "type": "event"
    },
    {
      "anonymous": false,
      "inputs": [
        {
          "indexed": false,
          "internalType": "address",
          "name": "platform",
          "type": "address"
        },
        {
          "indexed": false,
          "internalType": "uint256[]",
          "name": "id",
          "type": "uint256[]"
        },
        {
          "indexed": false,
          "internalType": "uint256[]",
          "name": "counts",
          "type": "uint256[]"
        }
      ],
      "name": "VideoCountsUpdate",
      "type": "event"
    },
    {
      "anonymous": false,
      "inputs": [
        {
          "indexed": false,
          "internalType": "address",
          "name": "platform",
          "type": "address"
        },
        {
          "indexed": false,
          "internalType": "uint256",
          "name": "realId",
          "type": "uint256"
        },
        {
          "indexed": false,
          "internalType": "uint256",
          "name": "id",
          "type": "uint256"
        },
        {
          "indexed": false,
          "internalType": "string",
          "name": "symbol",
          "type": "string"
        },
        {
          "indexed": false,
          "internalType": "address",
          "name": "creator",
          "type": "address"
        }
      ],
      "name": "VideoCreate",
      "type": "event"
    },
    {
      "anonymous": false,
      "inputs": [
        {
          "indexed": false,
          "internalType": "uint256",
          "name": "videoId",
          "type": "uint256"
        },
        {
          "indexed": false,
          "internalType": "uint256",
          "name": "unsettled",
          "type": "uint256"
        },
        {
          "indexed": false,
          "internalType": "uint256",
          "name": "surplus",
          "type": "uint256"
        }
      ],
      "name": "VideoPreExtract",
      "type": "event"
    },
    {
      "inputs": [],
      "name": "Despoit",
      "outputs": [
        {
          "internalType": "uint256",
          "name": "",
          "type": "uint256"
        }
      ],
      "stateMutability": "view",
      "type": "function"
    },
    {
      "inputs": [],
      "name": "accessStrategy",
      "outputs": [
        {
          "internalType": "contract IAccessStrategy",
          "name": "",
          "type": "address"
        }
      ],
      "stateMutability": "view",
      "type": "function"
    },
    {
      "inputs": [],
      "name": "auditStrategy",
      "outputs": [
        {
          "internalType": "contract IAuditStrategy",
          "name": "",
          "type": "address"
        }
      ],
      "stateMutability": "view",
      "type": "function"
    },
    {
      "inputs": [
        {
          "internalType": "uint256",
          "name": "applyId",
          "type": "uint256"
        }
      ],
      "name": "cancel",
      "outputs": [],
      "stateMutability": "nonpayable",
      "type": "function"
    },
    {
      "inputs": [
        {
          "internalType": "uint256",
          "name": "id",
          "type": "uint256"
        },
        {
          "internalType": "string",
          "name": "symbol",
          "type": "string"
        },
        {
          "internalType": "address",
          "name": "creator",
          "type": "address"
        }
      ],
      "name": "createVideo",
      "outputs": [
        {
          "internalType": "uint256",
          "name": "",
          "type": "uint256"
        }
      ],
      "stateMutability": "nonpayable",
      "type": "function"
    },
    {
      "inputs": [],
      "name": "detectionStrategy",
      "outputs": [
        {
          "internalType": "contract IDetectionStrategy",
          "name": "",
          "type": "address"
        }
      ],
      "stateMutability": "view",
      "type": "function"
    },
    {
      "inputs": [
        {
          "internalType": "uint256",
          "name": "subtitleId",
          "type": "uint256"
        },
        {
          "internalType": "uint8",
          "name": "attitude",
          "type": "uint8"
        }
      ],
      "name": "evaluateSubtitle",
      "outputs": [],
      "stateMutability": "nonpayable",
      "type": "function"
    },
    {
      "inputs": [
        {
          "internalType": "uint16",
          "name": "languageId",
          "type": "uint16"
        }
      ],
      "name": "getLanguageType",
      "outputs": [
        {
          "internalType": "string",
          "name": "",
          "type": "string"
        }
      ],
      "stateMutability": "view",
      "type": "function"
    },
    {
      "inputs": [
        {
          "internalType": "uint256",
          "name": "subtitleId",
          "type": "uint256"
        }
      ],
      "name": "getSubtitleAuditInfo",
      "outputs": [
        {
          "internalType": "uint256",
          "name": "",
          "type": "uint256"
        },
        {
          "internalType": "uint256",
          "name": "",
          "type": "uint256"
        },
        {
          "internalType": "uint256",
          "name": "",
          "type": "uint256"
        },
        {
          "internalType": "uint256",
          "name": "",
          "type": "uint256"
        },
        {
          "internalType": "uint256",
          "name": "",
          "type": "uint256"
        }
      ],
      "stateMutability": "view",
      "type": "function"
    },
    {
      "inputs": [
        {
          "internalType": "address",
          "name": "usr",
          "type": "address"
        }
      ],
      "name": "getUserBaseInfo",
      "outputs": [
        {
          "internalType": "uint256",
          "name": "",
          "type": "uint256"
        },
        {
          "internalType": "int256",
          "name": "",
          "type": "int256"
        }
      ],
      "stateMutability": "view",
      "type": "function"
    },
    {
      "inputs": [
        {
          "internalType": "address",
          "name": "usr",
          "type": "address"
        },
        {
          "internalType": "address",
          "name": "platform",
          "type": "address"
        },
        {
          "internalType": "uint256",
          "name": "day",
          "type": "uint256"
        }
      ],
      "name": "getUserLockReward",
      "outputs": [
        {
          "internalType": "uint256",
          "name": "",
          "type": "uint256"
        }
      ],
      "stateMutability": "view",
      "type": "function"
    },
    {
      "inputs": [
        {
          "internalType": "string",
          "name": "",
          "type": "string"
        }
      ],
      "name": "languages",
      "outputs": [
        {
          "internalType": "uint16",
          "name": "",
          "type": "uint16"
        }
      ],
      "stateMutability": "view",
      "type": "function"
    },
    {
      "inputs": [],
      "name": "lockUpTime",
      "outputs": [
        {
          "internalType": "uint256",
          "name": "",
          "type": "uint256"
        }
      ],
      "stateMutability": "view",
      "type": "function"
    },
    {
      "inputs": [],
      "name": "owner",
      "outputs": [
        {
          "internalType": "address",
          "name": "",
          "type": "address"
        }
      ],
      "stateMutability": "view",
      "type": "function"
    },
    {
      "inputs": [],
      "name": "penalty",
      "outputs": [
        {
          "internalType": "uint256",
          "name": "",
          "type": "uint256"
        }
      ],
      "stateMutability": "view",
      "type": "function"
    },
    {
      "inputs": [
        {
          "internalType": "uint16",
          "name": "rate1",
          "type": "uint16"
        },
        {
          "internalType": "uint16",
          "name": "rate2",
          "type": "uint16"
        }
      ],
      "name": "platformRate",
      "outputs": [
        {
          "internalType": "uint16",
          "name": "",
          "type": "uint16"
        },
        {
          "internalType": "uint16",
          "name": "",
          "type": "uint16"
        }
      ],
      "stateMutability": "nonpayable",
      "type": "function"
    },
    {
      "inputs": [
        {
          "internalType": "address",
          "name": "",
          "type": "address"
        }
      ],
      "name": "platforms",
      "outputs": [
        {
          "internalType": "string",
          "name": "name",
          "type": "string"
        },
        {
          "internalType": "string",
          "name": "symbol",
          "type": "string"
        },
        {
          "internalType": "uint256",
          "name": "platformId",
          "type": "uint256"
        },
        {
          "internalType": "uint16",
          "name": "rateCountsToProfit",
          "type": "uint16"
        },
        {
          "internalType": "uint16",
          "name": "rateAuditorDivide",
          "type": "uint16"
        }
      ],
      "stateMutability": "view",
      "type": "function"
    },
    {
      "inputs": [
        {
          "internalType": "address",
          "name": "platfrom",
          "type": "address"
        },
        {
          "internalType": "string",
          "name": "name",
          "type": "string"
        },
        {
          "internalType": "string",
          "name": "symbol",
          "type": "string"
        },
        {
          "internalType": "uint16",
          "name": "rate1",
          "type": "uint16"
        },
        {
          "internalType": "uint16",
          "name": "rate2",
          "type": "uint16"
        }
      ],
      "name": "platfromJoin",
      "outputs": [
        {
          "internalType": "uint256",
          "name": "",
          "type": "uint256"
        }
      ],
      "stateMutability": "nonpayable",
      "type": "function"
    },
    {
      "inputs": [
        {
          "internalType": "address",
          "name": "platform",
          "type": "address"
        },
        {
          "internalType": "address",
          "name": "to",
          "type": "address"
        },
        {
          "internalType": "uint256",
          "name": "amount",
          "type": "uint256"
        }
      ],
      "name": "preDivide",
      "outputs": [],
      "stateMutability": "nonpayable",
      "type": "function"
    },
    {
      "inputs": [
        {
          "internalType": "address",
          "name": "platform",
          "type": "address"
        },
        {
          "internalType": "address[]",
          "name": "to",
          "type": "address[]"
        },
        {
          "internalType": "uint256",
          "name": "amount",
          "type": "uint256"
        }
      ],
      "name": "preDivideBatch",
      "outputs": [],
      "stateMutability": "nonpayable",
      "type": "function"
    },
    {
      "inputs": [
        {
          "internalType": "uint256",
          "name": "applyId",
          "type": "uint256"
        }
      ],
      "name": "preExtract0",
      "outputs": [],
      "stateMutability": "nonpayable",
      "type": "function"
    },
    {
      "inputs": [
        {
          "internalType": "uint256",
          "name": "videoId",
          "type": "uint256"
        }
      ],
      "name": "preExtractOther",
      "outputs": [
        {
          "internalType": "uint256",
          "name": "",
          "type": "uint256"
        }
      ],
      "stateMutability": "nonpayable",
      "type": "function"
    },
    {
      "inputs": [
        {
          "internalType": "uint256",
          "name": "applyId",
          "type": "uint256"
        },
        {
          "internalType": "uint256",
          "name": "amount",
          "type": "uint256"
        },
        {
          "internalType": "uint256",
          "name": "deadline",
          "type": "uint256"
        }
      ],
      "name": "recover",
      "outputs": [],
      "stateMutability": "nonpayable",
      "type": "function"
    },
    {
      "inputs": [
        {
          "internalType": "string[]",
          "name": "language",
          "type": "string[]"
        }
      ],
      "name": "registerLanguage",
      "outputs": [
        {
          "internalType": "uint16",
          "name": "",
          "type": "uint16"
        }
      ],
      "stateMutability": "nonpayable",
      "type": "function"
    },
    {
      "inputs": [
        {
          "internalType": "uint256",
          "name": "applyId",
          "type": "uint256"
        }
      ],
      "name": "resetApplication",
      "outputs": [],
      "stateMutability": "nonpayable",
      "type": "function"
    },
    {
      "inputs": [
        {
          "internalType": "contract IAccessStrategy",
          "name": "newAccess",
          "type": "address"
        }
      ],
      "name": "setAccessStrategy",
      "outputs": [],
      "stateMutability": "nonpayable",
      "type": "function"
    },
    {
      "inputs": [
        {
          "internalType": "contract IAuditStrategy",
          "name": "newAudit",
          "type": "address"
        }
      ],
      "name": "setAuditStrategy",
      "outputs": [],
      "stateMutability": "nonpayable",
      "type": "function"
    },
    {
      "inputs": [
        {
          "internalType": "contract IDetectionStrategy",
          "name": "newDetection",
          "type": "address"
        }
      ],
      "name": "setDetectionStrategy",
      "outputs": [],
      "stateMutability": "nonpayable",
      "type": "function"
    },
    {
      "inputs": [
        {
          "internalType": "uint256",
          "name": "time",
          "type": "uint256"
        }
      ],
      "name": "setLockUpTime",
      "outputs": [],
      "stateMutability": "nonpayable",
      "type": "function"
    },
    {
      "inputs": [
        {
          "internalType": "address[]",
          "name": "operators",
          "type": "address[]"
        },
        {
          "internalType": "bool",
          "name": "state",
          "type": "bool"
        }
      ],
      "name": "setOperators",
      "outputs": [],
      "stateMutability": "nonpayable",
      "type": "function"
    },
    {
      "inputs": [
        {
          "internalType": "uint8",
          "name": "strategyId",
          "type": "uint8"
        },
        {
          "internalType": "address",
          "name": "strategy",
          "type": "address"
        },
        {
          "internalType": "string",
          "name": "notes",
          "type": "string"
        }
      ],
      "name": "setSettlementStrategy",
      "outputs": [],
      "stateMutability": "nonpayable",
      "type": "function"
    },
    {
      "inputs": [
        {
          "internalType": "address",
          "name": "token",
          "type": "address"
        }
      ],
      "name": "setSubtitleToken",
      "outputs": [],
      "stateMutability": "nonpayable",
      "type": "function"
    },
    {
      "inputs": [
        {
          "internalType": "address",
          "name": "token",
          "type": "address"
        }
      ],
      "name": "setVideoToken",
      "outputs": [],
      "stateMutability": "nonpayable",
      "type": "function"
    },
    {
      "inputs": [
        {
          "internalType": "address",
          "name": "token",
          "type": "address"
        }
      ],
      "name": "setZimuToken",
      "outputs": [],
      "stateMutability": "nonpayable",
      "type": "function"
    },
    {
      "inputs": [
        {
          "internalType": "uint8",
          "name": "",
          "type": "uint8"
        }
      ],
      "name": "settlementStrategy",
      "outputs": [
        {
          "internalType": "address",
          "name": "strategy",
          "type": "address"
        },
        {
          "internalType": "string",
          "name": "notes",
          "type": "string"
        }
      ],
      "stateMutability": "view",
      "type": "function"
    },
    {
      "inputs": [
        {
          "internalType": "address",
          "name": "platform",
          "type": "address"
        },
        {
          "internalType": "uint256",
          "name": "videoId",
          "type": "uint256"
        },
        {
          "internalType": "uint8",
          "name": "strategy",
          "type": "uint8"
        },
        {
          "internalType": "uint256",
          "name": "amount",
          "type": "uint256"
        },
        {
          "internalType": "uint16",
          "name": "language",
          "type": "uint16"
        },
        {
          "internalType": "uint256",
          "name": "deadline",
          "type": "uint256"
        },
        {
          "internalType": "string",
          "name": "source",
          "type": "string"
        }
      ],
      "name": "submitApplication",
      "outputs": [
        {
          "internalType": "uint256",
          "name": "",
          "type": "uint256"
        }
      ],
      "stateMutability": "nonpayable",
      "type": "function"
    },
    {
      "inputs": [
        {
          "internalType": "uint256",
          "name": "",
          "type": "uint256"
        }
      ],
      "name": "subtitleNFT",
      "outputs": [
        {
          "internalType": "uint256",
          "name": "applyId",
          "type": "uint256"
        },
        {
          "internalType": "uint8",
          "name": "state",
          "type": "uint8"
        },
        {
          "internalType": "uint256",
          "name": "stateChangeTime",
          "type": "uint256"
        }
      ],
      "stateMutability": "view",
      "type": "function"
    },
    {
      "inputs": [],
      "name": "subtitleToken",
      "outputs": [
        {
          "internalType": "address",
          "name": "",
          "type": "address"
        }
      ],
      "stateMutability": "view",
      "type": "function"
    },
    {
      "inputs": [],
      "name": "totalApplyNumber",
      "outputs": [
        {
          "internalType": "uint256",
          "name": "",
          "type": "uint256"
        }
      ],
      "stateMutability": "view",
      "type": "function"
    },
    {
      "inputs": [
        {
          "internalType": "uint256",
          "name": "",
          "type": "uint256"
        }
      ],
      "name": "totalApplys",
      "outputs": [
        {
          "internalType": "address",
          "name": "applicant",
          "type": "address"
        },
        {
          "internalType": "address",
          "name": "platform",
          "type": "address"
        },
        {
          "internalType": "uint256",
          "name": "videoId",
          "type": "uint256"
        },
        {
          "internalType": "string",
          "name": "source",
          "type": "string"
        },
        {
          "internalType": "uint8",
          "name": "strategy",
          "type": "uint8"
        },
        {
          "internalType": "uint256",
          "name": "amount",
          "type": "uint256"
        },
        {
          "internalType": "uint16",
          "name": "language",
          "type": "uint16"
        },
        {
          "internalType": "uint256",
          "name": "adopted",
          "type": "uint256"
        },
        {
          "internalType": "uint256",
          "name": "deadline",
          "type": "uint256"
        }
      ],
      "stateMutability": "view",
      "type": "function"
    },
    {
      "inputs": [],
      "name": "totalPlatforms",
      "outputs": [
        {
          "internalType": "uint256",
          "name": "",
          "type": "uint256"
        }
      ],
      "stateMutability": "view",
      "type": "function"
    },
    {
      "inputs": [],
      "name": "totalVideoNumber",
      "outputs": [
        {
          "internalType": "uint256",
          "name": "",
          "type": "uint256"
        }
      ],
      "stateMutability": "view",
      "type": "function"
    },
    {
      "inputs": [
        {
          "internalType": "address",
          "name": "newOwner",
          "type": "address"
        }
      ],
      "name": "transferOwnership",
      "outputs": [],
      "stateMutability": "nonpayable",
      "type": "function"
    },
    {
      "inputs": [
        {
          "internalType": "uint256",
          "name": "applyId",
          "type": "uint256"
        },
        {
          "internalType": "uint256",
          "name": "plusAmount",
          "type": "uint256"
        },
        {
          "internalType": "uint256",
          "name": "plusTime",
          "type": "uint256"
        }
      ],
      "name": "updateApplication",
      "outputs": [],
      "stateMutability": "nonpayable",
      "type": "function"
    },
    {
      "inputs": [
        {
          "internalType": "uint256[]",
          "name": "id",
          "type": "uint256[]"
        },
        {
          "internalType": "uint256[]",
          "name": "ss",
          "type": "uint256[]"
        }
      ],
      "name": "updateUsageCounts",
      "outputs": [],
      "stateMutability": "nonpayable",
      "type": "function"
    },
    {
      "inputs": [
        {
          "internalType": "uint256[]",
          "name": "id",
          "type": "uint256[]"
        },
        {
          "internalType": "uint256[]",
          "name": "vs",
          "type": "uint256[]"
        }
      ],
      "name": "updateViewCounts",
      "outputs": [],
      "stateMutability": "nonpayable",
      "type": "function"
    },
    {
      "inputs": [
        {
          "internalType": "uint256",
          "name": "applyId",
          "type": "uint256"
        },
        {
          "internalType": "string",
          "name": "cid",
          "type": "string"
        },
        {
          "internalType": "uint16",
          "name": "languageId",
          "type": "uint16"
        },
        {
          "internalType": "uint256",
          "name": "fingerprint",
          "type": "uint256"
        }
      ],
      "name": "uploadSubtitle",
      "outputs": [
        {
          "internalType": "uint256",
          "name": "",
          "type": "uint256"
        }
      ],
      "stateMutability": "nonpayable",
      "type": "function"
    },
    {
      "inputs": [
        {
          "internalType": "address",
          "name": "usr",
          "type": "address"
        },
        {
          "internalType": "uint256",
          "name": "despoit",
          "type": "uint256"
        }
      ],
      "name": "userJoin",
      "outputs": [],
      "stateMutability": "nonpayable",
      "type": "function"
    },
    {
      "inputs": [],
      "name": "videoToken",
      "outputs": [
        {
          "internalType": "address",
          "name": "",
          "type": "address"
        }
      ],
      "stateMutability": "view",
      "type": "function"
    },
    {
      "inputs": [
        {
          "internalType": "uint256",
          "name": "",
          "type": "uint256"
        }
      ],
      "name": "videos",
      "outputs": [
        {
          "internalType": "address",
          "name": "platform",
          "type": "address"
        },
        {
          "internalType": "uint256",
          "name": "id",
          "type": "uint256"
        },
        {
          "internalType": "string",
          "name": "symbol",
          "type": "string"
        },
        {
          "internalType": "address",
          "name": "creator",
          "type": "address"
        },
        {
          "internalType": "uint256",
          "name": "totalViewCouts",
          "type": "uint256"
        },
        {
          "internalType": "uint256",
          "name": "unsettled",
          "type": "uint256"
        }
      ],
      "stateMutability": "view",
      "type": "function"
    },
    {
      "inputs": [
        {
          "internalType": "address",
          "name": "platform",
          "type": "address"
        },
        {
          "internalType": "uint256[]",
          "name": "day",
          "type": "uint256[]"
        }
      ],
      "name": "withdraw",
      "outputs": [
        {
          "internalType": "uint256",
          "name": "",
          "type": "uint256"
        }
      ],
      "stateMutability": "nonpayable",
      "type": "function"
    },
    {
      "inputs": [
        {
          "internalType": "uint256",
          "name": "amount",
          "type": "uint256"
        }
      ],
      "name": "withdrawDeposit",
      "outputs": [
        {
          "internalType": "uint256",
          "name": "",
          "type": "uint256"
        }
      ],
      "stateMutability": "nonpayable",
      "type": "function"
    },
    {
      "inputs": [],
      "name": "zimuToken",
      "outputs": [
        {
          "internalType": "address",
          "name": "",
          "type": "address"
        }
      ],
      "stateMutability": "view",
      "type": "function"
    }
  ],
  "bytecode": "0x60806040523480156200001157600080fd5b5060405162005f6b38038062005f6b833981016040819052620000349162000282565b6200003f816200018c565b7f13649b2456f1b42fef0f0040b3aaeabcd21a76a0f3f5defd4f583839455116eb805463ffff0000191663028f0000179055604080518082019091526007815266111959985d5b1d60ca1b602080830191825260008052600c90529051620000c9917f13649b2456f1b42fef0f0040b3aaeabcd21a76a0f3f5defd4f583839455116e891620001dc565b50604080518082019091526007815266111959985d5b1d60ca1b602080830191825260008052600c9052905162000122917f13649b2456f1b42fef0f0040b3aaeabcd21a76a0f3f5defd4f583839455116e991620001dc565b506009805460018101825560009190915260408051808201909152600780825266111959985d5b1d60ca1b602090920191825262000184927f6e1540171b6c0c960b71a7020d9f60077f6af931a8bbf590da0223dacf75c7af019190620001dc565b5050620002f1565b600080546001600160a01b038381166001600160a01b0319831681178455604051919092169283917f8be0079c531659141344cd1fd0a4f28419497f9722a3daafe3b4186f6b6457e09190a35050565b828054620001ea90620002b4565b90600052602060002090601f0160209004810192826200020e576000855562000259565b82601f106200022957805160ff191683800117855562000259565b8280016001018555821562000259579182015b82811115620002595782518255916020019190600101906200023c565b50620002679291506200026b565b5090565b5b808211156200026757600081556001016200026c565b6000602082840312156200029557600080fd5b81516001600160a01b0381168114620002ad57600080fd5b9392505050565b600181811c90821680620002c957607f821691505b60208210811415620002eb57634e487b7160e01b600052602260045260246000fd5b50919050565b615c6a80620003016000396000f3fe608060405234801561001057600080fd5b50600436106102775760003560e01c806386497b7e1161015857806386497b7e1461052d5780638b228006146105405780638da5cb5b1461056f5780638de728c31461058057806394fec79f14610593578063a2b8a3d91461059c578063a3111bdb146105bd578063a5c25ad1146105d0578063a93e5cef146105f0578063b8fcef8b14610603578063b953324a1461060c578063bedb041914610634578063c0cdec8e1461063d578063c354900a14610646578063d131338414610659578063d68036471461067d578063e4e505ee146106c3578063e6821bf5146106d6578063e759dcd0146106fb578063e8fb5d221461070e578063e94a61ae14610721578063ea05657c14610734578063ea80eae414610747578063f2fde38b1461075a578063f579622b1461076d578063fa3f856714610780578063fb74121a1461079357600080fd5b80630275dc5d1461027c578063030df1d71461029157806308b79e14146102a45780630edd2ffc146102cf578063167624ec146102e65780631cd0af28146102f95780631f53ea4b14610319578063264859cb1461032c57806329d2f4501461033f5780632a3ce1a4146103525780632df68593146103805780632fdd215e1461039357806333289a46146103a65780633f2cfd32146103b957806340e58ee5146103c257806357a7e7bd146103d557806358bc16ee146103e85780635aaf6287146104295780635deea7461461046d57806360a5095314610480578063621208d914610493578063699b3237146104a657806373bb6ac0146104b957806373e01efb146104cc57806376d1fd49146105075780638293744b1461051a575b600080fd5b61028f61028a366004614ac3565b6107a6565b005b61028f61029f366004614af1565b610985565b6102b76102b2366004614be6565b610a2b565b60405161ffff90911681526020015b60405180910390f35b6102d860035481565b6040519081526020016102c6565b6102d86102f4366004614c9b565b610bc4565b60135461030c906001600160a01b031681565b6040516102c69190614cf5565b61028f610327366004614d18565b610c10565b61028f61033a366004614af1565b610d5b565b600d5461030c906001600160a01b031681565b610365610360366004614d90565b610df6565b6040805161ffff9384168152929091166020830152016102c6565b6102d861038e366004614dc3565b610f40565b6102d86103a1366004614ac3565b611159565b6102d86103b4366004614ac3565b6112f8565b6102d860195481565b61028f6103d0366004614ac3565b61140d565b61028f6103e3366004614ac3565b6115bb565b61041a6103f6366004614ac3565b600e60205260009081526040902080546001820154600290920154909160ff169083565b6040516102c693929190614e5a565b6102d8610437366004614e73565b6001600160a01b039283166000908152600a60209081526040808320949095168252600290930183528381209181529152205490565b60065461030c906001600160a01b031681565b61028f61048e366004614af1565b611642565b61028f6104a1366004614e73565b6116dd565b61028f6104b4366004614eb4565b61170a565b61028f6104c7366004614ee0565b611808565b6104df6104da366004614ac3565b611a52565b604080519586526020860194909452928401919091526060830152608082015260a0016102c6565b60125461030c906001600160a01b031681565b6102d8610528366004614f76565b611b1d565b60115461030c906001600160a01b031681565b6102b761054e366004614fc5565b805160208183018101805160088252928201919093012091525461ffff1681565b6000546001600160a01b031661030c565b61028f61058e366004615065565b611ecc565b6102d860145481565b6105af6105aa3660046150bd565b611ef9565b6040516102c6929190615132565b61028f6105cb366004615164565b611fa8565b6105e36105de3660046151aa565b61207f565b6040516102c691906151c5565b6102d86105fe3660046151d8565b612132565b6102d8600b5481565b61061f61061a366004614ac3565b6126f0565b6040516102c699989796959493929190615267565b6102d860165481565b6102d860025481565b61028f610654366004614af1565b6127d6565b61066c610667366004614af1565b612871565b6040516102c69594939291906152d0565b6106ae61068b366004614af1565b6001600160a01b03166000908152600a6020526040902080546001909101549091565b604080519283526020830191909152016102c6565b61028f6106d1366004614af1565b6129b8565b6106e96106e4366004614ac3565b612a53565b6040516102c696959493929190615318565b61028f610709366004614eb4565b612b26565b61028f61071c36600461535d565b612c62565b60075461030c906001600160a01b031681565b61028f610742366004615389565b612dab565b61028f610755366004614af1565b6130be565b61028f610768366004614af1565b613159565b61028f61077b366004614ac3565b6131f4565b61028f61078e366004615389565b613273565b6102d86107a13660046153e2565b613426565b6000818152601a602052604090206004015460ff16156107e15760405162461bcd60e51b81526004016107d890615440565b60405180910390fd5b6000818152601a602081815260408084206002810154855260178352818520547fa31547ce6245cdb9ecea19cf8c7eb9f5974025bb4075011409251ae855b30aed54600d5496889052949093526008015490516331a9108f60e11b81526001600160a01b039283169493831693631899ca5f93879387939290911691636352211e916108739160040190815260200190565b60206040518083038186803b15801561088b57600080fd5b505afa15801561089f573d6000803e3d6000fd5b505050506040513d601f19601f820116820180604052508101906108c3919061545d565b6001600160a01b0386166000908152600c602090815260408083206003908101548b8552601a8452828520600801548552600e909352818420915160e089901b6001600160e01b031916815261092e979695949362010000900461ffff1692909101906004016154c3565b602060405180830381600087803b15801561094857600080fd5b505af115801561095c573d6000803e3d6000fd5b505050506040513d601f19601f820116820180604052508101906109809190615512565b505050565b6000546001600160a01b031633146109af5760405162461bcd60e51b81526004016107d89061552b565b6001600160a01b0381166109d55760405162461bcd60e51b81526004016107d890615560565b600680546001600160a01b0319166001600160a01b0383161790556040517f08c317d71a27e3dfca204d6ca65032977890b64d0bb25a1f9dfbec5b031013c890610a20908390614cf5565b60405180910390a150565b6000805b8251811015610bae576009838281518110610a4c57610a4c61557d565b60209081029190910181015182546001810184556000938452928290208151610a7e94919091019291909101906149f0565b506008838281518110610a9357610a9361557d565b6020026020010151604051610aa89190615593565b9081526040519081900360200190205461ffff1615610ad95760405162461bcd60e51b81526004016107d8906155af565b600954610ae8906001906155e2565b6008848381518110610afc57610afc61557d565b6020026020010151604051610b119190615593565b908152602001604051809103902060006101000a81548161ffff021916908361ffff1602179055507f90de228dee0605259423a988ce153c9485cc6325b472e0d4900cc77e43229462838281518110610b6c57610b6c61557d565b60200260200101516001600980549050610b8691906155e2565b604051610b949291906155f9565b60405180910390a180610ba68161561f565b915050610a2f565b50600954610bbe906001906155e2565b92915050565b336000908152600c602052604081206003015461ffff16610bf75760405162461bcd60e51b81526004016107d890615560565b6000610c05338686866136c6565b9150505b9392505050565b6000546001600160a01b03163314610c3a5760405162461bcd60e51b81526004016107d89061552b565b6001600160a01b038216610c605760405162461bcd60e51b81526004016107d890615560565b60ff8316600090815260156020908152604090912080546001600160a01b0319166001600160a01b0385161781558251610ca2926001909201918401906149f0565b5060ff83166000908152601560205260409020546001600160a01b031615610cf55760ff83166000908152601560209081526040808320546001600160a01b0316835260019091529020805460ff191690555b6001600160a01b038216600090815260016020819052604091829020805460ff19169091179055517ffe7a72823ef2858b4f44a3a728a93b18a9a2bd480962708b9568ac4a5653b8ee90610d4e9085908590859061563a565b60405180910390a1505050565b6000546001600160a01b03163314610d855760405162461bcd60e51b81526004016107d89061552b565b6001600160a01b038116610dab5760405162461bcd60e51b81526004016107d890615560565b601280546001600160a01b0319166001600160a01b0383161790556040517f141131bc079b7ca93af08d8d002e7b5c05980b35119d25bcfbf50a474d8e4f7f90610a20908390614cf5565b60008061ffff8416151580610e0e575061ffff831615155b610e2a5760405162461bcd60e51b81526004016107d890615560565b336000908152600c602052604090206003015461ffff16610e735760405162461bcd60e51b815260206004820152600360248201526222a91960e91b60448201526064016107d8565b61ffff841615610e9f57336000908152600c60205260409020600301805461ffff191661ffff86161790555b61ffff831615610ed257336000908152600c60205260409020600301805463ffff000019166201000061ffff8616021790555b6040805133815261ffff868116602083015285168183015290517f7d07d6e6f7e20d3e822b52403568ff69d07e849c5fb471a7f31801d722b5ade79181900360600190a15050336000908152600c602052604090206003015461ffff80821691620100009004169250929050565b600080546001600160a01b03163314610f6b5760405162461bcd60e51b81526004016107d89061552b565b6001600160a01b0386166000908152600c602052604090206003015461ffff1615610fa85760405162461bcd60e51b81526004016107d8906155af565b60008361ffff16118015610fc0575060008261ffff16115b610fdc5760405162461bcd60e51b81526004016107d890615560565b600b8054906000610fec8361561f565b90915550506040805160a0810182528681526020808201879052600b548284015261ffff8087166060840152851660808301526001600160a01b0389166000908152600c825292909220815180519293919261104b92849201906149f0565b50602082810151805161106492600185019201906149f0565b50604082810151600283015560608301516003909201805460809094015161ffff908116620100000263ffffffff19909516931692909217929092179055600754600b54915163169a7b1960e11b81526001600160a01b0390911691632d34f632916110d79188918b9190600401615670565b600060405180830381600087803b1580156110f157600080fd5b505af1158015611105573d6000803e3d6000fd5b505050507ff7ab3642f3af1eb7a3d99172b39d3b81500f0d2e8ca42817bf14e6f588c3a5dd86600b54878787876040516111449695949392919061569e565b60405180910390a150600b5495945050505050565b6000818152601760205260408120600501546111a05760405162461bcd60e51b81526004016107d8906020808252600490820152634552313160e01b604082015260600190565b6000828152601760209081526040808320600581015490546001600160a01b03168452600c90925282206003015461ffff916111dd9183166156f9565b6111ea90620f42406156f9565b6111f49190615718565b90506000611202848361380d565b905080156112a157600754600085815260176020818152604080842080546001600160a01b039081168652600c845282862060020154958b9052939092526003909101549051630107289f60e41b81529382169363107289f09361126e9390921690869060040161573a565b600060405180830381600087803b15801561128857600080fd5b505af115801561129c573d6000803e3d6000fd5b505050505b60008481526017602052604080822060050191909155517f97a628715758aec012fad464591d7f79e0aa8c976b33fd58fd8f4c2dd1c58503906112e990869085908590615759565b60405180910390a15092915050565b336000908152600a602052604081206001015481126113295760405162461bcd60e51b81526004016107d890615560565b336000908152600a602052604090206001015482111561135957336000908152600a602052604090206001015491505b336000908152600a60205260408120600101805484929061137b90849061576f565b90915550506006546040516323b872dd60e01b81526001600160a01b03909116906323b872dd906113b4903090339087906004016157ae565b602060405180830381600087803b1580156113ce57600080fd5b505af11580156113e2573d6000803e3d6000fd5b505050506040513d601f19601f8201168201806040525081019061140691906157d2565b5090919050565b6000818152601a60205260409020546001600160a01b031633146114435760405162461bcd60e51b81526004016107d8906157ef565b6000818152601a602052604090206008015415801561147157506000818152601a6020526040902060070154155b801561148e57506000818152601a60205260409020600901544210155b6114aa5760405162461bcd60e51b81526004016107d89061580c565b6000818152601a602052604090206004015460ff16156114dc5760405162461bcd60e51b81526004016107d890615440565b6000818152601a60208181526040808420600280820154865260178452828620546001600160a01b039081168752600c8552838720909101546007549688905294909352600501549051630107289f60e41b815292939091169163107289f09161154c918591339160040161573a565b600060405180830381600087803b15801561156657600080fd5b505af115801561157a573d6000803e3d6000fd5b505050507fd30d71c48064110dd4ba58760f48b5cbcc60e64452b205ecdd43572bca55cc31826040516115af91815260200190565b60405180910390a15050565b3360009081526001602081905260409091205460ff161515146115dd57600080fd5b6000818152601a60205260408120600801556115fd426301e1338061582b565b6000828152601a602090815260409182902060090192909255518281527f0ade9c4f3078c6d3877cbb9e6922102e0b43f274bf1a91e88a064991de6496699101610a20565b6000546001600160a01b0316331461166c5760405162461bcd60e51b81526004016107d89061552b565b6001600160a01b0381166116925760405162461bcd60e51b81526004016107d890615560565b600d80546001600160a01b0319166001600160a01b0383161790556040517fc86d00792bf1e12e88a44ba4e23ce500127de980a86aafa6a8b5b964325f92e390610a20908390614cf5565b3360009081526001602081905260409091205460ff161515146116ff57600080fd5b610980838383613a53565b6000838152601a60205260409020546001600160a01b031633146117405760405162461bcd60e51b81526004016107d8906157ef565b6000838152601a60205260409020600801541561176f5760405162461bcd60e51b81526004016107d890615440565b6000838152601a60205260408120600501805484929061179090849061582b565b90915550506000838152601a6020526040812060090180548392906117b690849061582b565b90915550506000838152601a602052604090819020600581015460099091015491517f35ed1ca837379b509c5c95274a7943d5f9cd8aa516cd91f4b58041bfc4d66c2092610d4e928792909190615759565b6000828152600e60209081526040808320548352601a909152902060080154156118445760405162461bcd60e51b81526004016107d890615843565b61184f336000613a66565b601254336000908152600a60205260409081902080546001919091015491516309435fb560e21b81526001600160a01b039093169263250d7ed4926118a09291600401918252602082015260400190565b60206040518083038186803b1580156118b857600080fd5b505afa1580156118cc573d6000803e3d6000fd5b505050506040513d601f19601f820116820180604052508101906118f091906157d2565b61190c5760405162461bcd60e51b81526004016107d8906157ef565b611917828233613add565b600080600080600061192887611a52565b6011546014546040516309fff33560e31b8152600481018890526024810187905260448101869052606481018590526084810184905260a4810191909152959a50939850919650945092506000916001600160a01b0390911690634fff99a89060c40160206040518083038186803b1580156119a357600080fd5b505afa1580156119b7573d6000803e3d6000fd5b505050506040513d601f19601f820116820180604052508101906119db9190615860565b905060ff811615801590611a0157506000888152600e602052604090206001015460ff16155b15611a4857611a108882613ca8565b611a1a8882613d01565b8060ff1660011415611a48576000888152600e60209081526040808320548352601a90915290206008018890555b5050505050505050565b6000818152600e6020908152604080832054808452601a909252822060070154829182918291829182805b82811015611aea576000848152601a60205260408120600701805483908110611aa857611aa861557d565b6000918252602080832090910154808352600e909152604090912060030154909150611ad4908461582b565b9250508080611ae29061561f565b915050611a7d565b506000988952600e602052604090982060038101546004820154600290920154929a909991985090965090945092505050565b60008060005b8351811015611c8457336000908152600a602090815260408083206001600160a01b0389168452600201909152812085518290879085908110611b6857611b6861557d565b6020026020010151815260200190815260200160002054118015611bb25750601454848281518110611b9c57611b9c61557d565b6020026020010151611bae919061582b565b4210155b15611c7257336000908152600a602090815260408083206001600160a01b038916845260020190915281208551909190869084908110611bf457611bf461557d565b602002602001015181526020019081526020016000205482611c16919061582b565b336000908152600a602090815260408083206001600160a01b038a1684526002019091528120865192945090918290879085908110611c5757611c5761557d565b60200260200101518152602001908152602001600020819055505b80611c7c8161561f565b915050611b23565b508015611e885760045415611d7257600061271060045483611ca691906156f9565b611cb09190615718565b9050611cbc81836155e2565b91506001600160a01b03851615611d4a576007546001600160a01b038681166000908152600c602052604090819020600201549051630107289f60e41b8152919092169163107289f091611d1791903090869060040161573a565b600060405180830381600087803b158015611d3157600080fd5b505af1158015611d45573d6000803e3d6000fd5b505050505b6001600160a01b0385166000908152600c6020526040902060020154611d709082614297565b505b6001600160a01b03841615611e02576007546001600160a01b038581166000908152600c602052604090819020600201549051630107289f60e41b8152919092169163107289f091611dcb91903390869060040161573a565b600060405180830381600087803b158015611de557600080fd5b505af1158015611df9573d6000803e3d6000fd5b50505050611e88565b60065460405163a9059cbb60e01b81526001600160a01b039091169063a9059cbb90611e34903390859060040161587d565b602060405180830381600087803b158015611e4e57600080fd5b505af1158015611e62573d6000803e3d6000fd5b505050506040513d601f19601f82011682018060405250810190611e8691906157d2565b505b7f48462eddab712eed4d61f328a488b0145debaa43da5efde2468413e9c5393cf733858584604051611ebd94939291906158c6565b60405180910390a19392505050565b3360009081526001602081905260409091205460ff16151514611eee57600080fd5b6109808383836142be565b601560205260009081526040902080546001820180546001600160a01b039092169291611f2590615903565b80601f0160208091040260200160405190810160405280929190818152602001828054611f5190615903565b8015611f9e5780601f10611f7357610100808354040283529160200191611f9e565b820191906000526020600020905b815481529060010190602001808311611f8157829003601f168201915b5050505050905082565b6000546001600160a01b03163314611fd25760405162461bcd60e51b81526004016107d89061552b565b60005b8251811015612039578160016000858481518110611ff557611ff561557d565b6020908102919091018101516001600160a01b03168252810191909152604001600020805460ff1916911515919091179055806120318161561f565b915050611fd5565b508015158260405161204b919061593e565b604051908190038120907f6fe7cd0563aebb5e4e99409417b943dcd23e200b600962ac773009db204233c290600090a35050565b606060098261ffff16815481106120985761209861557d565b9060005260206000200180546120ad90615903565b80601f01602080910402602001604051908101604052809291908181526020018280546120d990615903565b80156121265780601f106120fb57610100808354040283529160200191612126565b820191906000526020600020905b81548152906001019060200180831161210957829003601f168201915b50505050509050919050565b600061213f336000613a66565b601254336000908152600a60205260409081902080546001919091015491516309435fb560e21b81526001600160a01b039093169263250d7ed4926121909291600401918252602082015260400190565b60206040518083038186803b1580156121a857600080fd5b505afa1580156121bc573d6000803e3d6000fd5b505050506040513d601f19601f820116820180604052508101906121e091906157d2565b6121fc5760405162461bcd60e51b81526004016107d8906157ef565b42831161221b5760405162461bcd60e51b81526004016107d890615560565b60ff86166000908152601560205260409020546001600160a01b03166122535760405162461bcd60e51b81526004016107d890615440565b601980549060006122638361561f565b90915550506001600160a01b0388166123725760ff8616156122ad5760405162461bcd60e51b815260206004820152600360248201526245523760e81b60448201526064016107d8565b60008251116122e65760405162461bcd60e51b81526020600482015260056024820152644552312d3760d81b60448201526064016107d8565b6006546040516323b872dd60e01b81526001600160a01b03909116906323b872dd9061231a90339030908a906004016157ae565b602060405180830381600087803b15801561233457600080fd5b505af1158015612348573d6000803e3d6000fd5b505050506040513d601f19601f8201168201806040525081019061236c91906157d2565b506124db565b6000878152601760205260409020600301546001600160a01b031633146123ab5760405162461bcd60e51b81526004016107d8906157ef565b60005b6000888152601760205260409020600601548110156124465760008881526017602052604081206006018054839081106123ea576123ea61557d565b6000918252602080832090910154808352601a90915260409091206006015490915061ffff90811690871614156124335760405162461bcd60e51b81526004016107d8906155af565b508061243e8161561f565b9150506123ae565b50600087815260176020908152604080832060060180548251818502810185019093528083526124b09383018282801561249f57602002820191906000526020600020905b81548152602001906001019080831161248b575b50505050508860ff1660195461430e565b600089815260176020908152604090912082519293506124d892600690910191840190614a74565b50505b8560ff16600214806124ee575060ff8616155b1561256e5760ff861660009081526015602052604080822054601954915163bd80123160e01b81526001600160a01b039091169263bd8012319261253b929091908a90829060040161597d565b600060405180830381600087803b15801561255557600080fd5b505af1158015612569573d6000803e3d6000fd5b505050505b601980546000908152601a602090815260408083208054336001600160a01b031991821617909155845484528184206002018c905584548452818420600401805460ff191660ff8d16179055845484528184206005018a905584548452818420600601805461ffff191661ffff8b16179055845484528184206009018890558454845281842060010180549091166001600160a01b038e16179055925482529190208351612624926003909201918501906149f0565b50600754336000818152600a6020526040808220549051630107289f60e41b81526001600160a01b039094169363107289f0936126669392909160040161573a565b600060405180830381600087803b15801561268057600080fd5b505af1158015612694573d6000803e3d6000fd5b505050507f552e081116c21885e388accbf0275fbfb758238d1b04237fff749061d9a72424338989898989896019548a6040516126d99998979695949392919061599c565b60405180910390a150601954979650505050505050565b601a6020526000908152604090208054600182015460028301546003840180546001600160a01b03948516959490931693919261272c90615903565b80601f016020809104026020016040519081016040528092919081815260200182805461275890615903565b80156127a55780601f1061277a576101008083540402835291602001916127a5565b820191906000526020600020905b81548152906001019060200180831161278857829003601f168201915b5050506004840154600585015460068601546008870154600990970154959660ff9093169591945061ffff16925089565b6000546001600160a01b031633146128005760405162461bcd60e51b81526004016107d89061552b565b6001600160a01b0381166128265760405162461bcd60e51b81526004016107d890615560565b600780546001600160a01b0319166001600160a01b0383161790556040517fb277bcb19384acdda5bb6f18f70aaeb940819c7a7b57499da45695d5c2091b0e90610a20908390614cf5565b600c6020526000908152604090208054819061288c90615903565b80601f01602080910402602001604051908101604052809291908181526020018280546128b890615903565b80156129055780601f106128da57610100808354040283529160200191612905565b820191906000526020600020905b8154815290600101906020018083116128e857829003601f168201915b50505050509080600101805461291a90615903565b80601f016020809104026020016040519081016040528092919081815260200182805461294690615903565b80156129935780601f1061296857610100808354040283529160200191612993565b820191906000526020600020905b81548152906001019060200180831161297657829003601f168201915b50505050600283015460039093015491929161ffff8082169250620100009091041685565b6000546001600160a01b031633146129e25760405162461bcd60e51b81526004016107d89061552b565b6001600160a01b038116612a085760405162461bcd60e51b81526004016107d890615560565b601380546001600160a01b0319166001600160a01b0383161790556040517f470ec44ead58d8875c956a389bdb710dcdc3cfcd1a601540691b30b5efcf7c7790610a20908390614cf5565b6017602052600090815260409020805460018201546002830180546001600160a01b03909316939192612a8590615903565b80601f0160208091040260200160405190810160405280929190818152602001828054612ab190615903565b8015612afe5780601f10612ad357610100808354040283529160200191612afe565b820191906000526020600020905b815481529060010190602001808311612ae157829003601f168201915b505050506003830154600484015460059094015492936001600160a01b039091169290915086565b6000838152601a60205260409020546001600160a01b03163314612b5c5760405162461bcd60e51b81526004016107d8906157ef565b6000838152601a6020526040902060080154158015612b8a57506000838152601a6020526040902060070154155b8015612ba757506000838152601a60205260409020600901544210155b612bc35760405162461bcd60e51b81526004016107d89061580c565b6000838152601a602052604090206004015460ff16612bf45760405162461bcd60e51b81526004016107d890615440565b428111612c135760405162461bcd60e51b81526004016107d890615560565b6000838152601a60205260409081902060098101839055600501839055517f4def1aaccaac82e9103ef071fe31f5651a3e338b2ae037cfb7725c3eca9fb51690610d4e90859085908590615759565b6006546040516323b872dd60e01b81526001600160a01b03909116906323b872dd90612c96903390309086906004016157ae565b602060405180830381600087803b158015612cb057600080fd5b505af1158015612cc4573d6000803e3d6000fd5b505050506040513d601f19601f82011682018060405250810190612ce891906157d2565b506001600160a01b0382166000908152600a6020526040902054612d1d57612d0f816144d5565b612d198282613a66565b5050565b6001600160a01b0382166000908152600a602052604081206001018054839290612d48908490615a04565b90915550612d579050816144d5565b6001600160a01b0382166000908152600a602052604090819020805460019091015491517fbc09618bc77172ebc0e046c72f495cd682958c43dd15faff368975f18a3d5a0a926115af928692909190615a45565b8051825114612dcc5760405162461bcd60e51b81526004016107d890615560565b60005b825181101561308a576000601a6000858481518110612df057612df061557d565b6020026020010151815260200190815260200160002060080154111561307857600060176000601a6000878681518110612e2c57612e2c61557d565b6020026020010151815260200190815260200160002060020154815260200190815260200160002060000160009054906101000a90046001600160a01b03169050806001600160a01b0316336001600160a01b031614612e9e5760405162461bcd60e51b81526004016107d8906157ef565b601a6000858481518110612eb457612eb461557d565b60209081029190910181015182528101919091526040016000206004015460ff1615801590612f1a5750601a6000858481518110612ef457612ef461557d565b60209081029190910181015182528101919091526040016000206004015460ff16600214155b612f365760405162461bcd60e51b81526004016107d890615560565b60156000601a6000878681518110612f5057612f5061557d565b602090810291909101810151825281810192909252604090810160009081206004015460ff16845291830193909352910190205484516001600160a01b039091169063bd80123190869085908110612faa57612faa61557d565b6020026020010151858581518110612fc457612fc461557d565b6020026020010151601a6000898881518110612fe257612fe261557d565b60209081029190910181015182528181019290925260409081016000908120600501546001600160a01b0389168252600c9093528190206003015490516001600160e01b031960e087901b1681526130449493929161ffff169060040161597d565b600060405180830381600087803b15801561305e57600080fd5b505af1158015613072573d6000803e3d6000fd5b50505050505b806130828161561f565b915050612dcf565b507f49de03a48f2d145bbebe50d32dffc47109f0846c23f21290c9f54a741aab7f053383836040516115af93929190615a66565b6000546001600160a01b031633146130e85760405162461bcd60e51b81526004016107d89061552b565b6001600160a01b03811661310e5760405162461bcd60e51b81526004016107d890615560565b601180546001600160a01b0319166001600160a01b0383161790556040517f1b4cbe91ecf2e88172c5623b0fbeb6f8eea92b0d825306a6237625dc2452259a90610a20908390614cf5565b6000546001600160a01b031633146131835760405162461bcd60e51b81526004016107d89061552b565b6001600160a01b0381166131e85760405162461bcd60e51b815260206004820152602660248201527f4f776e61626c653a206e6577206f776e657220697320746865207a65726f206160448201526564647265737360d01b60648201526084016107d8565b6131f1816144ef565b50565b6000546001600160a01b0316331461321e5760405162461bcd60e51b81526004016107d89061552b565b6000811161323e5760405162461bcd60e51b81526004016107d890615560565b60148190556040518181527fddda2129649b8d3c13605fd431e58aa0af3eda0702c0a57e171a9ed90989d32090602001610a20565b805182511461328457613284615aa6565b60005b82518110156133b757601760008483815181106132a6576132a661557d565b6020908102919091018101518252810191909152604001600020546001600160a01b031633146132e85760405162461bcd60e51b81526004016107d8906157ef565b8181815181106132fa576132fa61557d565b6020026020010151601760008584815181106133185761331861557d565b602002602001015181526020019081526020016000206004016000828254613340919061582b565b925050819055508181815181106133595761335961557d565b6020026020010151601760008584815181106133775761337761557d565b60200260200101518152602001908152602001600020600501600082825461339f919061582b565b909155508190506133af8161561f565b915050613287565b507f9c3aabf4229f3c7892abb038272114250e74a07e02539cb9114ef52ec2c1a48e60176000846000815181106133f0576133f061557d565b602090810291909101810151825281019190915260409081016000205490516115af916001600160a01b03169085908590615a66565b6000848152601a6020526040812060080154156134555760405162461bcd60e51b81526004016107d890615843565b6000858152601a602052604090206007015461349c576000858152601a602052604090206009015442111561349c5760405162461bcd60e51b81526004016107d890615843565b6000858152601a602052604090206006015461ffff8481169116146134e95760405162461bcd60e51b815260206004820152600360248201526245523960e81b60448201526064016107d8565b6134f4336000613a66565b601254336000908152600a60205260409081902080546001919091015491516309435fb560e21b81526001600160a01b039093169263250d7ed4926135459291600401918252602082015260400190565b60206040518083038186803b15801561355d57600080fd5b505afa158015613571573d6000803e3d6000fd5b505050506040513d601f19601f8201168201806040525081019061359591906157d2565b6135b15760405162461bcd60e51b81526004016107d8906157ef565b60006135bc8661453f565b6013549091506001600160a01b031615613687576013546040516318e8f49560e11b81526001600160a01b03909116906331d1e92a906136029086908590600401615abc565b60206040518083038186803b15801561361a57600080fd5b505afa15801561362e573d6000803e3d6000fd5b505050506040513d601f19601f8201168201806040525081019061365291906157d2565b6136875760405162461bcd60e51b81526004016107d8906020808252600490820152630455231360e41b604082015260600190565b6000613696338888888861469c565b6000888152601a602090815260408220600701805460018101825590835291200181905592505050949350505050565b60168054600091826136d78361561f565b90915550506001600160a01b03851660009081526018602090815260408083208784529091529020541561371d5760405162461bcd60e51b81526004016107d8906155af565b60168054600090815260176020908152604080832080546001600160a01b0319166001600160a01b038b1617905583548352808320600101889055925482529190208451613773926002909201918601906149f0565b5060168054600090815260176020908152604080832060030180546001600160a01b0319166001600160a01b0388811691909117909155935493891683526018825280832088845290915290819020829055517f558f31dc5dee6a560ed9a994f922e339f40c7c310f47862194463a2c68908d6c916137f9918891889188908890615ad5565b60405180910390a150601654949350505050565b6000805b600084815260176020526040902060060154811015613a4b57600084815260176020526040812060060180548390811061384d5761384d61557d565b6000918252602080832090910154808352601a90915260409091206004015490915060ff161580159061389057506000818152601a602052604090206008015415155b801561389c5750600084115b15613a3857600085815260176020908152604080832054848452601a80845282852060048082015460ff1687526015865284872054600d548989529390965260089091015493516331a9108f60e11b8152908101939093526001600160a01b039182169493821692631899ca5f9287928792911690636352211e9060240160206040518083038186803b15801561393257600080fd5b505afa158015613946573d6000803e3d6000fd5b505050506040513d601f19601f8201168201806040525081019061396a919061545d565b6001600160a01b0387166000908152600c602090815260408083206003908101548c8552601a8452828520600801548552600e90935292819020905160e088901b6001600160e01b03191681526139d5969594938f9362010000900461ffff169201906004016154c3565b602060405180830381600087803b1580156139ef57600080fd5b505af1158015613a03573d6000803e3d6000fd5b505050506040513d601f19601f82011682018060405250810190613a279190615512565b9050613a3381876155e2565b955050505b5080613a438161561f565b915050613811565b509092915050565b61098083613a5f61474f565b8385614763565b6001600160a01b0382166000908152600a6020526040902054612d19576001600160a01b0382166000908152600a6020526040908190206103e8808255600190910183905590517f9355839b7b67fd6e2485ad85238a7449f6ded48cbe176bd3c463dd2b645ff1ba916115af918591908590615a45565b6000838152600e602052604090206001015460ff1615613b0f5760405162461bcd60e51b81526004016107d890615843565b6001600160a01b0381166000908152600f6020908152604080832086845290915290205460ff1615613b535760405162461bcd60e51b81526004016107d890615b18565b60ff8216613c00576001600160a01b0381166000908152601060209081526040808320868452600e835281842054845290915290205415613ba65760405162461bcd60e51b81526004016107d890615b18565b6000838152600e602090815260408083206003810180546001810182559085528385200180546001600160a01b0319166001600160a01b038716908117909155845260108352818420905484529091529020839055613c3b565b6000838152600e602090815260408220600401805460018101825590835291200180546001600160a01b0319166001600160a01b0383161790555b6001600160a01b0381166000818152600f60209081526040808320878452825291829020805460ff1916600117905581518681529081019290925260ff8416908201527f302c645d2268a36235b96cfc33f21f85d7dd6525b340b801899e8b8d7846c44390606001610d4e565b6000828152600e60205260409081902060018101805460ff191660ff85161790554260028201555490517fbdee5e861830ed1c224df6174df0128922d6b8e4dd09ae2afe2aaf53e32db0da916115af9185918591614e5a565b60125460408051630d9f6b9160e11b815290516001926000926001600160a01b0390911691631b3ed72291600480820192602092909190829003018186803b158015613d4c57600080fd5b505afa158015613d60573d6000803e3d6000fd5b505050506040513d601f19601f82011682018060405250810190613d849190615860565b90508260ff1660021415613d985760001991505b601254600d546040516331a9108f60e11b81526004810187905260009283926001600160a01b0391821692630b9c8dce92600a928692911690636352211e9060240160206040518083038186803b158015613df257600080fd5b505afa158015613e06573d6000803e3d6000fd5b505050506040513d601f19601f82011682018060405250810190613e2a919061545d565b6001600160a01b03168152602081019190915260409081016000205490516001600160e01b031960e084901b168152600481019190915260ff88166024820152604401604080518083038186803b158015613e8457600080fd5b505afa158015613e98573d6000803e3d6000fd5b505050506040513d601f19601f82011682018060405250810190613ebc9190615b35565b600d546040516331a9108f60e11b8152600481018a9052929450909250613f97916001600160a01b0390911690636352211e9060240160206040518083038186803b158015613f0a57600080fd5b505afa158015613f1e573d6000803e3d6000fd5b505050506040513d601f19601f82011682018060405250810190613f42919061545d565b600086900b6064613f5660ff8816876156f9565b613f609190615718565b613f6a9190615b59565b600087900b6064613f7e60ff8916876156f9565b613f889190615718565b613f929190615b59565b61485a565b505060005b6000858152600e6020526040902060030154811015614108576012546000868152600e602052604081206003018054919283926001600160a01b0390911691630b9c8dce91600a91859188908110613ff657613ff661557d565b6000918252602080832091909101546001600160a01b03168352820192909252604090810190912054905160e083901b6001600160e01b0319168152600481019190915260ff89166024820152604401604080518083038186803b15801561405d57600080fd5b505afa158015614071573d6000803e3d6000fd5b505050506040513d601f19601f820116820180604052508101906140959190615b35565b915091506140f3600e600089815260200190815260200160002060030184815481106140c3576140c361557d565b60009182526020822001546001600160a01b0316906140e59088900b85615b59565b613f92600089900b85615b59565b505080806141009061561f565b915050613f9c565b5060005b6000858152600e6020526040902060040154811015614290576012546000868152600e602052604081206004018054919283926001600160a01b0390911691630b9c8dce91600a918591889081106141665761416661557d565b6000918252602080832091909101546001600160a01b03168352820192909252604090810190912054905160e083901b6001600160e01b0319168152600481019190915260ff89166024820152604401604080518083038186803b1580156141cd57600080fd5b505afa1580156141e1573d6000803e3d6000fd5b505050506040513d601f19601f820116820180604052508101906142059190615b35565b9150915061427b600e600089815260200190815260200160002060040184815481106142335761423361557d565b60009182526020822001546001600160a01b0316906142559088900b85615b59565b61426190600019615b59565b61426f600089900b85615b59565b613f9290600019615b59565b505080806142889061561f565b91505061410c565b5050505050565b600082815260056020526040812080548392906142b590849061582b565b90915550505050565b60005b8251811015614308576142f6846142d661474f565b848685815181106142e9576142e961557d565b6020026020010151614763565b806143008161561f565b9150506142c1565b50505050565b6060600084516001614320919061582b565b6001600160401b0381111561433757614337614b0e565b604051908082528060200260200182016040528015614360578160200160208202803683370190505b5090508051600114156143935782816000815181106143815761438161557d565b60209081029190910101529050610c09565b6000600186516143a391906155e2565b90505b801561440057601a60008783815181106143c2576143c261557d565b60209081029190910181015182528101919091526040016000206004015460ff1685106143ee57614400565b806143f881615bde565b9150506143a6565b60005b82518110156144ca57818111614450578681815181106144255761442561557d565b602002602001015183828151811061443f5761443f61557d565b6020026020010181815250506144b8565b61445b82600161582b565b811415614475578483828151811061443f5761443f61557d565b866144816001836155e2565b815181106144915761449161557d565b60200260200101518382815181106144ab576144ab61557d565b6020026020010181815250505b806144c28161561f565b915050614403565b509095945050505050565b80156131f157806002546144e99190615a04565b60025550565b600080546001600160a01b038381166001600160a01b0319831681178455604051919092169283917f8be0079c531659141344cd1fd0a4f28419497f9722a3daafe3b4186f6b6457e09190a35050565b6000818152601a6020526040812060070154606091906001600160401b0381111561456c5761456c614b0e565b604051908082528060200260200182016040528015614595578160200160208202803683370190505b50905060005b6000848152601a602052604090206007015481101561469557600d546000858152601a6020526040902060070180546001600160a01b039092169163d6f323c69190849081106145ed576145ed61557d565b90600052602060002001546040518263ffffffff1660e01b815260040161461691815260200190565b60206040518083038186803b15801561462e57600080fd5b505afa158015614642573d6000803e3d6000fd5b505050506040513d601f19601f820116820180604052508101906146669190615512565b8282815181106146785761467861557d565b60209081029190910101528061468d8161561f565b91505061459b565b5092915050565b600d54604051636a18f8ef60e01b815260009182916001600160a01b0390911690636a18f8ef906146d9908a908a908a908a908a90600401615bf5565b602060405180830381600087803b1580156146f357600080fd5b505af1158015614707573d6000803e3d6000fd5b505050506040513d601f19601f8201168201806040525081019061472b9190615512565b6000818152600e602052604090208781554260029091015591505095945050505050565b600061475e6201518042615718565b905090565b6001600160a01b0381166000908152600a60205260409020546147985760405162461bcd60e51b81526004016107d8906155af565b6001600160a01b038082166000908152600a60209081526040808320938816835260029093018152828220868352905220546147d48382615a04565b6001600160a01b038381166000818152600a60209081526040808320948b16808452600290950182528083208a845282529182902094909455805191825292810191909152908101859052606081018490527f7a3b7621e1e2606fa77559253d4ea69786f77a1f71df1c5728f593f17b0b291b9060800160405180910390a15050505050565b6001600160a01b0383166000908152600a602052604090205461487e908390615a04565b6001600160a01b0384166000908152600a60205260408120919091558112156148f2576001600160a01b0383166000908152600a60205260409020600101546148c8908290615a04565b6001600160a01b0384166000908152600a60205260409020600101556148ed816149c4565b614957565b600654604051634d24848760e11b81526001600160a01b0390911690639a49090e90614924908690859060040161587d565b600060405180830381600087803b15801561493e57600080fd5b505af1158015614952573d6000803e3d6000fd5b505050505b6001600160a01b0383166000908152600a6020526040902054614991576001600160a01b0383166000908152600a60205260409020600190555b7fbc09618bc77172ebc0e046c72f495cd682958c43dd15faff368975f18a3d5a0a838383604051610d4e93929190615a45565b80600360008282546149d6919061582b565b909155506131f190506149eb82600019615b59565b6144d5565b8280546149fc90615903565b90600052602060002090601f016020900481019282614a1e5760008555614a64565b82601f10614a3757805160ff1916838001178555614a64565b82800160010185558215614a64579182015b82811115614a64578251825591602001919060010190614a49565b50614a70929150614aae565b5090565b828054828255906000526020600020908101928215614a645791602002820182811115614a64578251825591602001919060010190614a49565b5b80821115614a705760008155600101614aaf565b600060208284031215614ad557600080fd5b5035919050565b6001600160a01b03811681146131f157600080fd5b600060208284031215614b0357600080fd5b8135610c0981614adc565b634e487b7160e01b600052604160045260246000fd5b604051601f8201601f191681016001600160401b0381118282101715614b4c57614b4c614b0e565b604052919050565b60006001600160401b03821115614b6d57614b6d614b0e565b5060051b60200190565b600082601f830112614b8857600080fd5b81356001600160401b03811115614ba157614ba1614b0e565b614bb4601f8201601f1916602001614b24565b818152846020838601011115614bc957600080fd5b816020850160208301376000918101602001919091529392505050565b60006020808385031215614bf957600080fd5b82356001600160401b0380821115614c1057600080fd5b818501915085601f830112614c2457600080fd5b8135614c37614c3282614b54565b614b24565b81815260059190911b83018401908481019088831115614c5657600080fd5b8585015b83811015614c8e57803585811115614c725760008081fd5b614c808b89838a0101614b77565b845250918601918601614c5a565b5098975050505050505050565b600080600060608486031215614cb057600080fd5b8335925060208401356001600160401b03811115614ccd57600080fd5b614cd986828701614b77565b9250506040840135614cea81614adc565b809150509250925092565b6001600160a01b0391909116815260200190565b60ff811681146131f157600080fd5b600080600060608486031215614d2d57600080fd5b8335614d3881614d09565b92506020840135614d4881614adc565b915060408401356001600160401b03811115614d6357600080fd5b614d6f86828701614b77565b9150509250925092565b803561ffff81168114614d8b57600080fd5b919050565b60008060408385031215614da357600080fd5b614dac83614d79565b9150614dba60208401614d79565b90509250929050565b600080600080600060a08688031215614ddb57600080fd5b8535614de681614adc565b945060208601356001600160401b0380821115614e0257600080fd5b614e0e89838a01614b77565b95506040880135915080821115614e2457600080fd5b50614e3188828901614b77565b935050614e4060608701614d79565b9150614e4e60808701614d79565b90509295509295909350565b92835260ff919091166020830152604082015260600190565b600080600060608486031215614e8857600080fd5b8335614e9381614adc565b92506020840135614ea381614adc565b929592945050506040919091013590565b600080600060608486031215614ec957600080fd5b505081359360208301359350604090920135919050565b60008060408385031215614ef357600080fd5b823591506020830135614f0581614d09565b809150509250929050565b600082601f830112614f2157600080fd5b81356020614f31614c3283614b54565b82815260059290921b84018101918181019086841115614f5057600080fd5b8286015b84811015614f6b5780358352918301918301614f54565b509695505050505050565b60008060408385031215614f8957600080fd5b8235614f9481614adc565b915060208301356001600160401b03811115614faf57600080fd5b614fbb85828601614f10565b9150509250929050565b600060208284031215614fd757600080fd5b81356001600160401b03811115614fed57600080fd5b614ff984828501614b77565b949350505050565b600082601f83011261501257600080fd5b81356020615022614c3283614b54565b82815260059290921b8401810191818101908684111561504157600080fd5b8286015b84811015614f6b57803561505881614adc565b8352918301918301615045565b60008060006060848603121561507a57600080fd5b833561508581614adc565b925060208401356001600160401b038111156150a057600080fd5b6150ac86828701615001565b925050604084013590509250925092565b6000602082840312156150cf57600080fd5b8135610c0981614d09565b60005b838110156150f55781810151838201526020016150dd565b838111156143085750506000910152565b6000815180845261511e8160208601602086016150da565b601f01601f19169290920160200192915050565b6001600160a01b0383168152604060208201819052600090614ff990830184615106565b80151581146131f157600080fd5b6000806040838503121561517757600080fd5b82356001600160401b0381111561518d57600080fd5b61519985828601615001565b9250506020830135614f0581615156565b6000602082840312156151bc57600080fd5b610c0982614d79565b602081526000610c096020830184615106565b600080600080600080600060e0888a0312156151f357600080fd5b87356151fe81614adc565b965060208801359550604088013561521581614d09565b94506060880135935061522a60808901614d79565b925060a0880135915060c08801356001600160401b0381111561524c57600080fd5b6152588a828b01614b77565b91505092959891949750929550565b6001600160a01b038a8116825289166020820152604081018890526101206060820181905260009061529b8382018a615106565b60ff989098166080840152505060a081019490945261ffff9290921660c084015260e083015261010090910152949350505050565b60a0815260006152e360a0830188615106565b82810360208401526152f58188615106565b6040840196909652505061ffff9283166060820152911660809091015292915050565b600060018060a01b03808916835287602084015260c0604084015261534060c0840188615106565b9516606083015250608081019290925260a0909101529392505050565b6000806040838503121561537057600080fd5b823561537b81614adc565b946020939093013593505050565b6000806040838503121561539c57600080fd5b82356001600160401b03808211156153b357600080fd5b6153bf86838701614f10565b935060208501359150808211156153d557600080fd5b50614fbb85828601614f10565b600080600080608085870312156153f857600080fd5b8435935060208501356001600160401b0381111561541557600080fd5b61542187828801614b77565b93505061543060408601614d79565b9396929550929360600135925050565b60208082526003908201526222a91b60e91b604082015260600190565b60006020828403121561546f57600080fd5b8151610c0981614adc565b6000815480845260208085019450836000528060002060005b838110156154b85781546001600160a01b031687529582019560019182019101615493565b509495945050505050565b8681526001600160a01b038681166020830152851660408201526060810184905261ffff8316608082015260c060a082018190526000906155069083018461547a565b98975050505050505050565b60006020828403121561552457600080fd5b5051919050565b6020808252818101527f4f776e61626c653a2063616c6c6572206973206e6f7420746865206f776e6572604082015260600190565b60208082526003908201526245523160e81b604082015260600190565b634e487b7160e01b600052603260045260246000fd5b600082516155a58184602087016150da565b9190910192915050565b60208082526003908201526204552360ec1b604082015260600190565b634e487b7160e01b600052601160045260246000fd5b6000828210156155f4576155f46155cc565b500390565b60408152600061560c6040830185615106565b905061ffff831660208301529392505050565b6000600019821415615633576156336155cc565b5060010190565b60ff841681526001600160a01b038316602082015260606040820181905260009061566790830184615106565b95945050505050565b6060815260006156836060830186615106565b6001600160a01b039490941660208301525060400152919050565b60018060a01b038716815285602082015260c0604082015260006156c560c0830187615106565b82810360608401526156d78187615106565b91505061ffff808516608084015280841660a084015250979650505050505050565b6000816000190483118215151615615713576157136155cc565b500290565b60008261573557634e487b7160e01b600052601260045260246000fd5b500490565b9283526001600160a01b03919091166020830152604082015260600190565b9283526020830191909152604082015260600190565b60008083128015600160ff1b85018412161561578d5761578d6155cc565b6001600160ff1b03840183138116156157a8576157a86155cc565b50500390565b6001600160a01b039384168152919092166020820152604081019190915260600190565b6000602082840312156157e457600080fd5b8151610c0981615156565b60208082526003908201526245523560e81b604082015260600190565b6020808252600590820152644552312d3560d81b604082015260600190565b6000821982111561583e5761583e6155cc565b500190565b60208082526003908201526245523360e81b604082015260600190565b60006020828403121561587257600080fd5b8151610c0981614d09565b6001600160a01b03929092168252602082015260400190565b600081518084526020808501945080840160005b838110156154b8578151875295820195908201906001016158aa565b6001600160a01b038581168252841660208201526080604082018190526000906158f290830185615896565b905082606083015295945050505050565b600181811c9082168061591757607f821691505b6020821081141561593857634e487b7160e01b600052602260045260246000fd5b50919050565b815160009082906020808601845b838110156159715781516001600160a01b03168552938201939082019060010161594c565b50929695505050505050565b9384526020840192909252604083015261ffff16606082015260800190565b600061012060018060a01b03808d168452808c1660208501525089604084015260ff8916606084015287608084015261ffff871660a08401528560c08401528460e0840152806101008401526159f481840185615106565b9c9b505050505050505050505050565b600080821280156001600160ff1b0384900385131615615a2657615a266155cc565b600160ff1b8390038412811615615a3f57615a3f6155cc565b50500190565b6001600160a01b039390931683526020830191909152604082015260600190565b6001600160a01b0384168152606060208201819052600090615a8a90830185615896565b8281036040840152615a9c8185615896565b9695505050505050565b634e487b7160e01b600052600160045260246000fd5b828152604060208201526000614ff96040830184615896565b600060018060a01b03808816835286602084015285604084015260a06060840152615b0360a0840186615106565b91508084166080840152509695505050505050565b60208082526003908201526211548d60ea1b604082015260600190565b60008060408385031215615b4857600080fd5b505080516020909101519092909150565b60006001600160ff1b0381841382841380821686840486111615615b7f57615b7f6155cc565b600160ff1b6000871282811687830589121615615b9e57615b9e6155cc565b60008712925087820587128484161615615bba57615bba6155cc565b87850587128184161615615bd057615bd06155cc565b505050929093029392505050565b600081615bed57615bed6155cc565b506000190190565b60018060a01b038616815284602082015260a060408201526000615c1c60a0830186615106565b61ffff9490941660608301525060800152939250505056fea2646970667358221220365d988d521618e7314abb5f4c49ddad0e206d94808f241616da46b644b7d14364736f6c63430008090033",
  "linkReferences": {},
  "deployedLinkReferences": {}
}