{
  "_format": "hh-sol-artifact-1",
  "contractName": "ZimuToken",
  "sourceName": "contracts/components/Zimu.sol",
  "abi": [
    {
      "inputs": [
        {
          "internalType": "address",
          "name": "ss",
          "type": "address"
        },
        {
          "internalType": "address",
          "name": "op",
          "type": "address"
        },
        {
          "internalType": "uint256",
          "name": "total",
          "type": "uint256"
        },
        {
          "internalType": "address",
          "name": "tokenOwnerAddress",
          "type": "address"
        }
      ],
      "stateMutability": "nonpayable",
      "type": "constructor"
    },
    {
      "anonymous": false,
      "inputs": [
        {
          "indexed": true,
          "internalType": "address",
          "name": "owner",
          "type": "address"
        },
        {
          "indexed": true,
          "internalType": "address",
          "name": "spender",
          "type": "address"
        },
        {
          "indexed": false,
          "internalType": "uint256",
          "name": "value",
          "type": "uint256"
        }
      ],
      "name": "Approval",
      "type": "event"
    },
    {
      "anonymous": false,
      "inputs": [
        {
          "indexed": false,
          "internalType": "uint256",
          "name": "number",
          "type": "uint256"
        }
      ],
      "name": "SystemChangeDayRewardLimit",
      "type": "event"
    },
    {
      "anonymous": false,
      "inputs": [
        {
          "indexed": false,
          "internalType": "address",
          "name": "newOpeator",
          "type": "address"
        }
      ],
      "name": "SystemChangeOpeator",
      "type": "event"
    },
    {
      "anonymous": false,
      "inputs": [
        {
          "indexed": true,
          "internalType": "address",
          "name": "from",
          "type": "address"
        },
        {
          "indexed": true,
          "internalType": "address",
          "name": "to",
          "type": "address"
        },
        {
          "indexed": false,
          "internalType": "uint256",
          "name": "value",
          "type": "uint256"
        }
      ],
      "name": "Transfer",
      "type": "event"
    },
    {
      "inputs": [
        {
          "internalType": "address",
          "name": "owner",
          "type": "address"
        },
        {
          "internalType": "address",
          "name": "spender",
          "type": "address"
        }
      ],
      "name": "allowance",
      "outputs": [
        {
          "internalType": "uint256",
          "name": "",
          "type": "uint256"
        }
      ],
      "stateMutability": "view",
      "type": "function"
    },
    {
      "inputs": [
        {
          "internalType": "address",
          "name": "spender",
          "type": "address"
        },
        {
          "internalType": "uint256",
          "name": "amount",
          "type": "uint256"
        }
      ],
      "name": "approve",
      "outputs": [
        {
          "internalType": "bool",
          "name": "",
          "type": "bool"
        }
      ],
      "stateMutability": "nonpayable",
      "type": "function"
    },
    {
      "inputs": [
        {
          "internalType": "address",
          "name": "account",
          "type": "address"
        }
      ],
      "name": "balanceOf",
      "outputs": [
        {
          "internalType": "uint256",
          "name": "",
          "type": "uint256"
        }
      ],
      "stateMutability": "view",
      "type": "function"
    },
    {
      "inputs": [
        {
          "internalType": "address",
          "name": "owner",
          "type": "address"
        },
        {
          "internalType": "uint256",
          "name": "amount",
          "type": "uint256"
        }
      ],
      "name": "burnReward",
      "outputs": [],
      "stateMutability": "nonpayable",
      "type": "function"
    },
    {
      "inputs": [
        {
          "internalType": "address",
          "name": "newOpeator",
          "type": "address"
        }
      ],
      "name": "changeOpeator",
      "outputs": [],
      "stateMutability": "nonpayable",
      "type": "function"
    },
    {
      "inputs": [],
      "name": "decimals",
      "outputs": [
        {
          "internalType": "uint8",
          "name": "",
          "type": "uint8"
        }
      ],
      "stateMutability": "view",
      "type": "function"
    },
    {
      "inputs": [
        {
          "internalType": "address",
          "name": "spender",
          "type": "address"
        },
        {
          "internalType": "uint256",
          "name": "subtractedValue",
          "type": "uint256"
        }
      ],
      "name": "decreaseAllowance",
      "outputs": [
        {
          "internalType": "bool",
          "name": "",
          "type": "bool"
        }
      ],
      "stateMutability": "nonpayable",
      "type": "function"
    },
    {
      "inputs": [
        {
          "internalType": "address",
          "name": "spender",
          "type": "address"
        },
        {
          "internalType": "uint256",
          "name": "addedValue",
          "type": "uint256"
        }
      ],
      "name": "increaseAllowance",
      "outputs": [
        {
          "internalType": "bool",
          "name": "",
          "type": "bool"
        }
      ],
      "stateMutability": "nonpayable",
      "type": "function"
    },
    {
      "inputs": [
        {
          "internalType": "address",
          "name": "to",
          "type": "address"
        },
        {
          "internalType": "uint256",
          "name": "amount",
          "type": "uint256"
        }
      ],
      "name": "mintReward",
      "outputs": [],
      "stateMutability": "nonpayable",
      "type": "function"
    },
    {
      "inputs": [],
      "name": "name",
      "outputs": [
        {
          "internalType": "string",
          "name": "",
          "type": "string"
        }
      ],
      "stateMutability": "view",
      "type": "function"
    },
    {
      "inputs": [],
      "name": "opeator",
      "outputs": [
        {
          "internalType": "address",
          "name": "",
          "type": "address"
        }
      ],
      "stateMutability": "view",
      "type": "function"
    },
    {
      "inputs": [],
      "name": "subtitleSystem",
      "outputs": [
        {
          "internalType": "address",
          "name": "",
          "type": "address"
        }
      ],
      "stateMutability": "view",
      "type": "function"
    },
    {
      "inputs": [],
      "name": "symbol",
      "outputs": [
        {
          "internalType": "string",
          "name": "",
          "type": "string"
        }
      ],
      "stateMutability": "view",
      "type": "function"
    },
    {
      "inputs": [],
      "name": "totalSupply",
      "outputs": [
        {
          "internalType": "uint256",
          "name": "",
          "type": "uint256"
        }
      ],
      "stateMutability": "view",
      "type": "function"
    },
    {
      "inputs": [
        {
          "internalType": "address",
          "name": "to",
          "type": "address"
        },
        {
          "internalType": "uint256",
          "name": "amount",
          "type": "uint256"
        }
      ],
      "name": "transfer",
      "outputs": [
        {
          "internalType": "bool",
          "name": "",
          "type": "bool"
        }
      ],
      "stateMutability": "nonpayable",
      "type": "function"
    },
    {
      "inputs": [
        {
          "internalType": "address",
          "name": "from",
          "type": "address"
        },
        {
          "internalType": "address",
          "name": "to",
          "type": "address"
        },
        {
          "internalType": "uint256",
          "name": "amount",
          "type": "uint256"
        }
      ],
      "name": "transferFrom",
      "outputs": [
        {
          "internalType": "bool",
          "name": "",
          "type": "bool"
        }
      ],
      "stateMutability": "nonpayable",
      "type": "function"
    }
  ],
  "bytecode": "0x60a06040523480156200001157600080fd5b506040516200100638038062001006833981016040819052620000349162000288565b604080518082018252600a8152692d34b6ba902a37b5b2b760b11b6020808301918252835180850190945260028452615a4d60f01b9084015281519192916200008091600391620001c5565b50805162000096906004906020840190620001c5565b5050600580546001600160a01b038088166001600160a01b03199283161783556006805491881691909216179055608084905260009150620000da846004620002f2565b620000e6919062000314565b9050620000f48282620000ff565b50505050506200038f565b6001600160a01b0382166200015a5760405162461bcd60e51b815260206004820152601f60248201527f45524332303a206d696e7420746f20746865207a65726f206164647265737300604482015260640160405180910390fd5b80600260008282546200016e919062000337565b90915550506001600160a01b038216600081815260208181526040808320805486019055518481527fddf252ad1be2c89b69c2b068fc378daa952ba7f163c4a11628f55a4df523b3ef910160405180910390a35050565b828054620001d39062000352565b90600052602060002090601f016020900481019282620001f7576000855562000242565b82601f106200021257805160ff191683800117855562000242565b8280016001018555821562000242579182015b828111156200024257825182559160200191906001019062000225565b506200025092915062000254565b5090565b5b8082111562000250576000815560010162000255565b80516001600160a01b03811681146200028357600080fd5b919050565b600080600080608085870312156200029f57600080fd5b620002aa856200026b565b9350620002ba602086016200026b565b925060408501519150620002d1606086016200026b565b905092959194509250565b634e487b7160e01b600052601160045260246000fd5b60008160001904831182151516156200030f576200030f620002dc565b500290565b6000826200033257634e487b7160e01b600052601260045260246000fd5b500490565b600082198211156200034d576200034d620002dc565b500190565b600181811c908216806200036757607f821691505b602082108114156200038957634e487b7160e01b600052602260045260246000fd5b50919050565b608051610c5b620003ab60003960006103c10152610c5b6000f3fe608060405234801561001057600080fd5b50600436106100d05760003560e01c806306fdde03146100d5578063095ea7b3146100f357806318160ddd1461011657806323b872dd14610128578063313ce5671461013b578063395093511461014a57806346749cd31461015d57806364cc323f1461017257806370a082311461019257806395d89b41146101bb5780639a49090e146101c3578063a457c2d7146101d6578063a58eae0c146101e9578063a9059cbb146101fc578063c08ad3151461020f578063dd62ed3e14610222575b600080fd5b6100dd610235565b6040516100ea9190610a28565b60405180910390f35b610106610101366004610a99565b6102c7565b60405190151581526020016100ea565b6002545b6040519081526020016100ea565b610106610136366004610ac3565b6102df565b604051601281526020016100ea565b610106610158366004610a99565b610303565b61017061016b366004610a99565b610325565b005b600654610185906001600160a01b031681565b6040516100ea9190610aff565b61011a6101a0366004610b13565b6001600160a01b031660009081526020819052604090205490565b6100dd610376565b6101706101d1366004610a99565b610385565b6101066101e4366004610a99565b6103fe565b600554610185906001600160a01b031681565b61010661020a366004610a99565b610479565b61017061021d366004610b13565b610487565b61011a610230366004610b35565b610507565b60606003805461024490610b68565b80601f016020809104026020016040519081016040528092919081815260200182805461027090610b68565b80156102bd5780601f10610292576101008083540402835291602001916102bd565b820191906000526020600020905b8154815290600101906020018083116102a057829003601f168201915b5050505050905090565b6000336102d5818585610532565b5060019392505050565b6000336102ed858285610657565b6102f88585856106d1565b506001949350505050565b6000336102d58185856103168383610507565b6103209190610bb9565b610532565b6005546001600160a01b0316331461036857336001600160a01b038316146103685760405162461bcd60e51b815260040161035f90610bd1565b60405180910390fd5b6103728282610863565b5050565b60606004805461024490610b68565b6005546001600160a01b031633146103af5760405162461bcd60e51b815260040161035f90610bd1565b6000816103bb60025490565b6103e5907f0000000000000000000000000000000000000000000000000000000000000000610bee565b6103ef9190610bee565b1061037257610372828261097b565b6000338161040c8286610507565b90508381101561046c5760405162461bcd60e51b815260206004820152602560248201527f45524332303a2064656372656173656420616c6c6f77616e63652062656c6f77604482015264207a65726f60d81b606482015260840161035f565b6102f88286868403610532565b6000336102d58185856106d1565b6006546001600160a01b031633146104b15760405162461bcd60e51b815260040161035f90610bd1565b600680546001600160a01b0319166001600160a01b0383161790556040517fc230166d5b3c6ebe94babff2e9235c3d9567bab83962dff750557845669baf3c906104fc908390610aff565b60405180910390a150565b6001600160a01b03918216600090815260016020908152604080832093909416825291909152205490565b6001600160a01b0383166105945760405162461bcd60e51b8152602060048201526024808201527f45524332303a20617070726f76652066726f6d20746865207a65726f206164646044820152637265737360e01b606482015260840161035f565b6001600160a01b0382166105f55760405162461bcd60e51b815260206004820152602260248201527f45524332303a20617070726f766520746f20746865207a65726f206164647265604482015261737360f01b606482015260840161035f565b6001600160a01b0383811660008181526001602090815260408083209487168084529482529182902085905590518481527f8c5be1e5ebec7d5bd14f71427d1e84f3dd0314c0f7b2291e5b200ac8c7c3b92591015b60405180910390a3505050565b60006106638484610507565b905060001981146106cb57818110156106be5760405162461bcd60e51b815260206004820152601d60248201527f45524332303a20696e73756666696369656e7420616c6c6f77616e6365000000604482015260640161035f565b6106cb8484848403610532565b50505050565b6001600160a01b0383166107355760405162461bcd60e51b815260206004820152602560248201527f45524332303a207472616e736665722066726f6d20746865207a65726f206164604482015264647265737360d81b606482015260840161035f565b6001600160a01b0382166107975760405162461bcd60e51b815260206004820152602360248201527f45524332303a207472616e7366657220746f20746865207a65726f206164647260448201526265737360e81b606482015260840161035f565b6001600160a01b0383166000908152602081905260409020548181101561080f5760405162461bcd60e51b815260206004820152602660248201527f45524332303a207472616e7366657220616d6f756e7420657863656564732062604482015265616c616e636560d01b606482015260840161035f565b6001600160a01b0384811660008181526020818152604080832087870390559387168083529184902080548701905592518581529092600080516020610c06833981519152910160405180910390a36106cb565b6001600160a01b0382166108c35760405162461bcd60e51b815260206004820152602160248201527f45524332303a206275726e2066726f6d20746865207a65726f206164647265736044820152607360f81b606482015260840161035f565b6001600160a01b038216600090815260208190526040902054818110156109375760405162461bcd60e51b815260206004820152602260248201527f45524332303a206275726e20616d6f756e7420657863656564732062616c616e604482015261636560f01b606482015260840161035f565b6001600160a01b038316600081815260208181526040808320868603905560028054879003905551858152919291600080516020610c06833981519152910161064a565b6001600160a01b0382166109d15760405162461bcd60e51b815260206004820152601f60248201527f45524332303a206d696e7420746f20746865207a65726f206164647265737300604482015260640161035f565b80600260008282546109e39190610bb9565b90915550506001600160a01b03821660008181526020818152604080832080548601905551848152600080516020610c06833981519152910160405180910390a35050565b600060208083528351808285015260005b81811015610a5557858101830151858201604001528201610a39565b81811115610a67576000604083870101525b50601f01601f1916929092016040019392505050565b80356001600160a01b0381168114610a9457600080fd5b919050565b60008060408385031215610aac57600080fd5b610ab583610a7d565b946020939093013593505050565b600080600060608486031215610ad857600080fd5b610ae184610a7d565b9250610aef60208501610a7d565b9150604084013590509250925092565b6001600160a01b0391909116815260200190565b600060208284031215610b2557600080fd5b610b2e82610a7d565b9392505050565b60008060408385031215610b4857600080fd5b610b5183610a7d565b9150610b5f60208401610a7d565b90509250929050565b600181811c90821680610b7c57607f821691505b60208210811415610b9d57634e487b7160e01b600052602260045260246000fd5b50919050565b634e487b7160e01b600052601160045260246000fd5b60008219821115610bcc57610bcc610ba3565b500190565b60208082526003908201526245523560e81b604082015260600190565b600082821015610c0057610c00610ba3565b50039056feddf252ad1be2c89b69c2b068fc378daa952ba7f163c4a11628f55a4df523b3efa264697066735822122037976cddf0abece2b795fb51e1429968ad2274f022f39c1617dc69ba4c16782464736f6c63430008090033",
  "linkReferences": {},
  "deployedLinkReferences": {}
}