{
  "_format": "hh-sol-artifact-1",
  "contractName": "ZimuToken",
  "sourceName": "contracts/components/Zimu.sol",
  "abi": [
    {
      "inputs": [
        {
          "internalType": "address",
          "name": "ms",
          "type": "address"
        },
        {
          "internalType": "uint256",
          "name": "total",
          "type": "uint256"
        },
        {
          "internalType": "address",
          "name": "tokenOwnerAddress",
          "type": "address"
        }
      ],
      "stateMutability": "nonpayable",
      "type": "constructor"
    },
    {
      "anonymous": false,
      "inputs": [
        {
          "indexed": true,
          "internalType": "address",
          "name": "owner",
          "type": "address"
        },
        {
          "indexed": true,
          "internalType": "address",
          "name": "spender",
          "type": "address"
        },
        {
          "indexed": false,
          "internalType": "uint256",
          "name": "value",
          "type": "uint256"
        }
      ],
      "name": "Approval",
      "type": "event"
    },
    {
      "anonymous": false,
      "inputs": [
        {
          "indexed": false,
          "internalType": "uint256",
          "name": "number",
          "type": "uint256"
        }
      ],
      "name": "SystemChangeDayRewardLimit",
      "type": "event"
    },
    {
      "anonymous": false,
      "inputs": [
        {
          "indexed": false,
          "internalType": "address",
          "name": "newOpeator",
          "type": "address"
        }
      ],
      "name": "SystemChangeOpeator",
      "type": "event"
    },
    {
      "anonymous": false,
      "inputs": [
        {
          "indexed": true,
          "internalType": "address",
          "name": "from",
          "type": "address"
        },
        {
          "indexed": true,
          "internalType": "address",
          "name": "to",
          "type": "address"
        },
        {
          "indexed": false,
          "internalType": "uint256",
          "name": "value",
          "type": "uint256"
        }
      ],
      "name": "Transfer",
      "type": "event"
    },
    {
      "inputs": [],
      "name": "Murmes",
      "outputs": [
        {
          "internalType": "address",
          "name": "",
          "type": "address"
        }
      ],
      "stateMutability": "view",
      "type": "function"
    },
    {
      "inputs": [
        {
          "internalType": "address",
          "name": "owner",
          "type": "address"
        },
        {
          "internalType": "address",
          "name": "spender",
          "type": "address"
        }
      ],
      "name": "allowance",
      "outputs": [
        {
          "internalType": "uint256",
          "name": "",
          "type": "uint256"
        }
      ],
      "stateMutability": "view",
      "type": "function"
    },
    {
      "inputs": [
        {
          "internalType": "address",
          "name": "spender",
          "type": "address"
        },
        {
          "internalType": "uint256",
          "name": "amount",
          "type": "uint256"
        }
      ],
      "name": "approve",
      "outputs": [
        {
          "internalType": "bool",
          "name": "",
          "type": "bool"
        }
      ],
      "stateMutability": "nonpayable",
      "type": "function"
    },
    {
      "inputs": [
        {
          "internalType": "address",
          "name": "account",
          "type": "address"
        }
      ],
      "name": "balanceOf",
      "outputs": [
        {
          "internalType": "uint256",
          "name": "",
          "type": "uint256"
        }
      ],
      "stateMutability": "view",
      "type": "function"
    },
    {
      "inputs": [
        {
          "internalType": "address",
          "name": "owner",
          "type": "address"
        },
        {
          "internalType": "uint256",
          "name": "amount",
          "type": "uint256"
        }
      ],
      "name": "burnReward",
      "outputs": [],
      "stateMutability": "nonpayable",
      "type": "function"
    },
    {
      "inputs": [],
      "name": "decimals",
      "outputs": [
        {
          "internalType": "uint8",
          "name": "",
          "type": "uint8"
        }
      ],
      "stateMutability": "view",
      "type": "function"
    },
    {
      "inputs": [
        {
          "internalType": "address",
          "name": "spender",
          "type": "address"
        },
        {
          "internalType": "uint256",
          "name": "subtractedValue",
          "type": "uint256"
        }
      ],
      "name": "decreaseAllowance",
      "outputs": [
        {
          "internalType": "bool",
          "name": "",
          "type": "bool"
        }
      ],
      "stateMutability": "nonpayable",
      "type": "function"
    },
    {
      "inputs": [
        {
          "internalType": "address",
          "name": "spender",
          "type": "address"
        },
        {
          "internalType": "uint256",
          "name": "addedValue",
          "type": "uint256"
        }
      ],
      "name": "increaseAllowance",
      "outputs": [
        {
          "internalType": "bool",
          "name": "",
          "type": "bool"
        }
      ],
      "stateMutability": "nonpayable",
      "type": "function"
    },
    {
      "inputs": [
        {
          "internalType": "address",
          "name": "to",
          "type": "address"
        },
        {
          "internalType": "uint256",
          "name": "amount",
          "type": "uint256"
        }
      ],
      "name": "mintReward",
      "outputs": [],
      "stateMutability": "nonpayable",
      "type": "function"
    },
    {
      "inputs": [],
      "name": "name",
      "outputs": [
        {
          "internalType": "string",
          "name": "",
          "type": "string"
        }
      ],
      "stateMutability": "view",
      "type": "function"
    },
    {
      "inputs": [],
      "name": "symbol",
      "outputs": [
        {
          "internalType": "string",
          "name": "",
          "type": "string"
        }
      ],
      "stateMutability": "view",
      "type": "function"
    },
    {
      "inputs": [],
      "name": "totalSupply",
      "outputs": [
        {
          "internalType": "uint256",
          "name": "",
          "type": "uint256"
        }
      ],
      "stateMutability": "view",
      "type": "function"
    },
    {
      "inputs": [
        {
          "internalType": "address",
          "name": "to",
          "type": "address"
        },
        {
          "internalType": "uint256",
          "name": "amount",
          "type": "uint256"
        }
      ],
      "name": "transfer",
      "outputs": [
        {
          "internalType": "bool",
          "name": "",
          "type": "bool"
        }
      ],
      "stateMutability": "nonpayable",
      "type": "function"
    },
    {
      "inputs": [
        {
          "internalType": "address",
          "name": "from",
          "type": "address"
        },
        {
          "internalType": "address",
          "name": "to",
          "type": "address"
        },
        {
          "internalType": "uint256",
          "name": "amount",
          "type": "uint256"
        }
      ],
      "name": "transferFrom",
      "outputs": [
        {
          "internalType": "bool",
          "name": "",
          "type": "bool"
        }
      ],
      "stateMutability": "nonpayable",
      "type": "function"
    }
  ],
  "bytecode": "0x60a06040523480156200001157600080fd5b5060405162000f1c38038062000f1c833981016040819052620000349162000276565b604080518082018252600a8152692d34b6ba902a37b5b2b760b11b6020808301918252835180850190945260028452615a4d60f01b9084015281519192916200008091600391620001b3565b50805162000096906004906020840190620001b3565b5050600580546001600160a01b0319166001600160a01b038616178155608084905260009150620000c9846004620002cd565b620000d59190620002ef565b9050620000e38282620000ed565b505050506200036a565b6001600160a01b038216620001485760405162461bcd60e51b815260206004820152601f60248201527f45524332303a206d696e7420746f20746865207a65726f206164647265737300604482015260640160405180910390fd5b80600260008282546200015c919062000312565b90915550506001600160a01b038216600081815260208181526040808320805486019055518481527fddf252ad1be2c89b69c2b068fc378daa952ba7f163c4a11628f55a4df523b3ef910160405180910390a35050565b828054620001c1906200032d565b90600052602060002090601f016020900481019282620001e5576000855562000230565b82601f106200020057805160ff191683800117855562000230565b8280016001018555821562000230579182015b828111156200023057825182559160200191906001019062000213565b506200023e92915062000242565b5090565b5b808211156200023e576000815560010162000243565b80516001600160a01b03811681146200027157600080fd5b919050565b6000806000606084860312156200028c57600080fd5b620002978462000259565b925060208401519150620002ae6040850162000259565b90509250925092565b634e487b7160e01b600052601160045260246000fd5b6000816000190483118215151615620002ea57620002ea620002b7565b500290565b6000826200030d57634e487b7160e01b600052601260045260246000fd5b500490565b60008219821115620003285762000328620002b7565b500190565b600181811c908216806200034257607f821691505b602082108114156200036457634e487b7160e01b600052602260045260246000fd5b50919050565b608051610b966200038660003960006103900152610b966000f3fe608060405234801561001057600080fd5b50600436106100ba5760003560e01c806306fdde03146100bf578063095ea7b3146100dd57806318160ddd1461010057806323b872dd14610112578063313ce56714610125578063395093511461013457806346749cd31461014757806370a082311461015c57806374bb22fe1461018557806395d89b41146101b05780639a49090e146101b8578063a457c2d7146101cb578063a9059cbb146101de578063dd62ed3e146101f1575b600080fd5b6100c7610204565b6040516100d49190610977565b60405180910390f35b6100f06100eb3660046109e8565b610296565b60405190151581526020016100d4565b6002545b6040519081526020016100d4565b6100f0610120366004610a12565b6102ae565b604051601281526020016100d4565b6100f06101423660046109e8565b6102d2565b61015a6101553660046109e8565b6102f4565b005b61010461016a366004610a4e565b6001600160a01b031660009081526020819052604090205490565b600554610198906001600160a01b031681565b6040516001600160a01b0390911681526020016100d4565b6100c7610345565b61015a6101c63660046109e8565b610354565b6100f06101d93660046109e8565b6103cd565b6100f06101ec3660046109e8565b610448565b6101046101ff366004610a70565b610456565b60606003805461021390610aa3565b80601f016020809104026020016040519081016040528092919081815260200182805461023f90610aa3565b801561028c5780601f106102615761010080835404028352916020019161028c565b820191906000526020600020905b81548152906001019060200180831161026f57829003601f168201915b5050505050905090565b6000336102a4818585610481565b5060019392505050565b6000336102bc8582856105a6565b6102c7858585610620565b506001949350505050565b6000336102a48185856102e58383610456565b6102ef9190610af4565b610481565b6005546001600160a01b0316331461033757336001600160a01b038316146103375760405162461bcd60e51b815260040161032e90610b0c565b60405180910390fd5b61034182826107b2565b5050565b60606004805461021390610aa3565b6005546001600160a01b0316331461037e5760405162461bcd60e51b815260040161032e90610b0c565b60008161038a60025490565b6103b4907f0000000000000000000000000000000000000000000000000000000000000000610b29565b6103be9190610b29565b106103415761034182826108ca565b600033816103db8286610456565b90508381101561043b5760405162461bcd60e51b815260206004820152602560248201527f45524332303a2064656372656173656420616c6c6f77616e63652062656c6f77604482015264207a65726f60d81b606482015260840161032e565b6102c78286868403610481565b6000336102a4818585610620565b6001600160a01b03918216600090815260016020908152604080832093909416825291909152205490565b6001600160a01b0383166104e35760405162461bcd60e51b8152602060048201526024808201527f45524332303a20617070726f76652066726f6d20746865207a65726f206164646044820152637265737360e01b606482015260840161032e565b6001600160a01b0382166105445760405162461bcd60e51b815260206004820152602260248201527f45524332303a20617070726f766520746f20746865207a65726f206164647265604482015261737360f01b606482015260840161032e565b6001600160a01b0383811660008181526001602090815260408083209487168084529482529182902085905590518481527f8c5be1e5ebec7d5bd14f71427d1e84f3dd0314c0f7b2291e5b200ac8c7c3b92591015b60405180910390a3505050565b60006105b28484610456565b9050600019811461061a578181101561060d5760405162461bcd60e51b815260206004820152601d60248201527f45524332303a20696e73756666696369656e7420616c6c6f77616e6365000000604482015260640161032e565b61061a8484848403610481565b50505050565b6001600160a01b0383166106845760405162461bcd60e51b815260206004820152602560248201527f45524332303a207472616e736665722066726f6d20746865207a65726f206164604482015264647265737360d81b606482015260840161032e565b6001600160a01b0382166106e65760405162461bcd60e51b815260206004820152602360248201527f45524332303a207472616e7366657220746f20746865207a65726f206164647260448201526265737360e81b606482015260840161032e565b6001600160a01b0383166000908152602081905260409020548181101561075e5760405162461bcd60e51b815260206004820152602660248201527f45524332303a207472616e7366657220616d6f756e7420657863656564732062604482015265616c616e636560d01b606482015260840161032e565b6001600160a01b0384811660008181526020818152604080832087870390559387168083529184902080548701905592518581529092600080516020610b41833981519152910160405180910390a361061a565b6001600160a01b0382166108125760405162461bcd60e51b815260206004820152602160248201527f45524332303a206275726e2066726f6d20746865207a65726f206164647265736044820152607360f81b606482015260840161032e565b6001600160a01b038216600090815260208190526040902054818110156108865760405162461bcd60e51b815260206004820152602260248201527f45524332303a206275726e20616d6f756e7420657863656564732062616c616e604482015261636560f01b606482015260840161032e565b6001600160a01b038316600081815260208181526040808320868603905560028054879003905551858152919291600080516020610b418339815191529101610599565b6001600160a01b0382166109205760405162461bcd60e51b815260206004820152601f60248201527f45524332303a206d696e7420746f20746865207a65726f206164647265737300604482015260640161032e565b80600260008282546109329190610af4565b90915550506001600160a01b03821660008181526020818152604080832080548601905551848152600080516020610b41833981519152910160405180910390a35050565b600060208083528351808285015260005b818110156109a457858101830151858201604001528201610988565b818111156109b6576000604083870101525b50601f01601f1916929092016040019392505050565b80356001600160a01b03811681146109e357600080fd5b919050565b600080604083850312156109fb57600080fd5b610a04836109cc565b946020939093013593505050565b600080600060608486031215610a2757600080fd5b610a30846109cc565b9250610a3e602085016109cc565b9150604084013590509250925092565b600060208284031215610a6057600080fd5b610a69826109cc565b9392505050565b60008060408385031215610a8357600080fd5b610a8c836109cc565b9150610a9a602084016109cc565b90509250929050565b600181811c90821680610ab757607f821691505b60208210811415610ad857634e487b7160e01b600052602260045260246000fd5b50919050565b634e487b7160e01b600052601160045260246000fd5b60008219821115610b0757610b07610ade565b500190565b60208082526003908201526245523560e81b604082015260600190565b600082821015610b3b57610b3b610ade565b50039056feddf252ad1be2c89b69c2b068fc378daa952ba7f163c4a11628f55a4df523b3efa26469706673582212201e2b897d3f8f113916f3b599c8f374adffde43b368eb26e3da53f080bab293ea64736f6c63430008090033",
  "linkReferences": {},
  "deployedLinkReferences": {}
}